{
  "address": "0xF7A9F5D74B5216E2cddeAe7433A55333083dB3cF",
  "abi": [
    {
      "anonymous": false,
      "inputs": [
        {
          "indexed": false,
          "internalType": "uint256",
          "name": "_newLength",
          "type": "uint256"
        }
      ],
      "name": "EpochUpdated",
      "type": "event"
    },
    {
      "anonymous": false,
      "inputs": [
        {
          "indexed": false,
          "internalType": "uint8",
          "name": "version",
          "type": "uint8"
        }
      ],
      "name": "Initialized",
      "type": "event"
    },
    {
      "anonymous": false,
      "inputs": [
        {
          "indexed": false,
          "internalType": "address",
          "name": "_newMpcAddress",
          "type": "address"
        }
      ],
      "name": "MpcAddressUpdated",
      "type": "event"
    },
    {
      "anonymous": false,
      "inputs": [
        {
          "indexed": true,
          "internalType": "uint256",
          "name": "epochId",
          "type": "uint256"
        },
        {
          "indexed": false,
          "internalType": "uint256",
          "name": "startBlock",
          "type": "uint256"
        },
        {
          "indexed": false,
          "internalType": "uint256",
          "name": "endBlock",
          "type": "uint256"
        },
        {
          "indexed": false,
          "internalType": "address",
          "name": "signer",
          "type": "address"
        }
      ],
      "name": "NewEpoch",
      "type": "event"
    },
    {
      "anonymous": false,
      "inputs": [
        {
          "indexed": true,
          "internalType": "address",
          "name": "previousOwner",
          "type": "address"
        },
        {
          "indexed": true,
          "internalType": "address",
          "name": "newOwner",
          "type": "address"
        }
      ],
      "name": "OwnershipTransferred",
      "type": "event"
    },
    {
      "anonymous": false,
      "inputs": [
        {
          "indexed": true,
          "internalType": "uint256",
          "name": "oldEpochId",
          "type": "uint256"
        },
        {
          "indexed": true,
          "internalType": "uint256",
          "name": "newEpochId",
          "type": "uint256"
        },
        {
          "indexed": false,
          "internalType": "uint256",
          "name": "startBlock",
          "type": "uint256"
        },
        {
          "indexed": false,
          "internalType": "uint256",
          "name": "endBlock",
          "type": "uint256"
        },
        {
          "indexed": false,
          "internalType": "address",
          "name": "newSigner",
          "type": "address"
        }
      ],
      "name": "ReCommitEpoch",
      "type": "event"
    },
    {
      "inputs": [
        {
          "internalType": "uint256",
          "name": "_newLength",
          "type": "uint256"
        }
      ],
      "name": "UpdateEpochLength",
      "outputs": [],
      "stateMutability": "nonpayable",
      "type": "function"
    },
    {
      "inputs": [
        {
          "internalType": "address",
          "name": "_newMpc",
          "type": "address"
        }
      ],
      "name": "UpdateMpcAddress",
      "outputs": [],
      "stateMutability": "nonpayable",
      "type": "function"
    },
    {
      "inputs": [
        {
          "internalType": "uint256",
          "name": "newEpoch",
          "type": "uint256"
        },
        {
          "internalType": "uint256",
          "name": "startBlock",
          "type": "uint256"
        },
        {
          "internalType": "uint256",
          "name": "endBlock",
          "type": "uint256"
        },
        {
          "internalType": "address",
          "name": "signer",
          "type": "address"
        }
      ],
      "name": "commitEpoch",
      "outputs": [],
      "stateMutability": "nonpayable",
      "type": "function"
    },
    {
      "inputs": [],
      "name": "currentEpoch",
      "outputs": [
        {
          "components": [
            {
              "internalType": "uint256",
              "name": "number",
              "type": "uint256"
            },
            {
              "internalType": "address",
              "name": "signer",
              "type": "address"
            },
            {
              "internalType": "uint256",
              "name": "startBlock",
              "type": "uint256"
            },
            {
              "internalType": "uint256",
              "name": "endBlock",
              "type": "uint256"
            }
          ],
          "internalType": "struct MetisSequencerSet.Epoch",
          "name": "epoch",
          "type": "tuple"
        }
      ],
      "stateMutability": "view",
      "type": "function"
    },
    {
      "inputs": [],
      "name": "currentEpochNumber",
      "outputs": [
        {
          "internalType": "uint256",
          "name": "",
          "type": "uint256"
        }
      ],
      "stateMutability": "view",
      "type": "function"
    },
    {
      "inputs": [],
      "name": "epochLength",
      "outputs": [
        {
          "internalType": "uint256",
          "name": "",
          "type": "uint256"
        }
      ],
      "stateMutability": "view",
      "type": "function"
    },
    {
      "inputs": [
        {
          "internalType": "uint256",
          "name": "",
          "type": "uint256"
        }
      ],
      "name": "epochNumbers",
      "outputs": [
        {
          "internalType": "uint256",
          "name": "",
          "type": "uint256"
        }
      ],
      "stateMutability": "view",
      "type": "function"
    },
    {
      "inputs": [
        {
          "internalType": "uint256",
          "name": "",
          "type": "uint256"
        }
      ],
      "name": "epochs",
      "outputs": [
        {
          "internalType": "uint256",
          "name": "number",
          "type": "uint256"
        },
        {
          "internalType": "address",
          "name": "signer",
          "type": "address"
        },
        {
          "internalType": "uint256",
          "name": "startBlock",
          "type": "uint256"
        },
        {
          "internalType": "uint256",
          "name": "endBlock",
          "type": "uint256"
        }
      ],
      "stateMutability": "view",
      "type": "function"
    },
    {
      "inputs": [],
      "name": "firstEndBlock",
      "outputs": [
        {
          "internalType": "uint256",
          "name": "",
          "type": "uint256"
        }
      ],
      "stateMutability": "view",
      "type": "function"
    },
    {
      "inputs": [],
      "name": "firstStartBlock",
      "outputs": [
        {
          "internalType": "uint256",
          "name": "",
          "type": "uint256"
        }
      ],
      "stateMutability": "view",
      "type": "function"
    },
    {
      "inputs": [
        {
          "internalType": "uint256",
          "name": "number",
          "type": "uint256"
        }
      ],
      "name": "getEpochByBlock",
      "outputs": [
        {
          "internalType": "uint256",
          "name": "",
          "type": "uint256"
        }
      ],
      "stateMutability": "view",
      "type": "function"
    },
    {
      "inputs": [
        {
          "internalType": "uint256",
          "name": "number",
          "type": "uint256"
        }
      ],
      "name": "getMetisSequencer",
      "outputs": [
        {
          "internalType": "address",
          "name": "",
          "type": "address"
        }
      ],
      "stateMutability": "view",
      "type": "function"
    },
    {
      "inputs": [],
      "name": "initialSequencer",
      "outputs": [
        {
          "internalType": "address",
          "name": "",
          "type": "address"
        }
      ],
      "stateMutability": "view",
      "type": "function"
    },
    {
      "inputs": [
        {
          "internalType": "address",
          "name": "_initialSequencer",
          "type": "address"
        },
        {
          "internalType": "address",
          "name": "_mpcAddress",
          "type": "address"
        },
        {
          "internalType": "uint256",
          "name": "_firstStartBlock",
          "type": "uint256"
        },
        {
          "internalType": "uint256",
          "name": "_firstEndBlock",
          "type": "uint256"
        },
        {
          "internalType": "uint256",
          "name": "_epochLength",
          "type": "uint256"
        }
      ],
      "name": "initialize",
      "outputs": [],
      "stateMutability": "nonpayable",
      "type": "function"
    },
    {
      "inputs": [],
      "name": "mpcAddress",
      "outputs": [
        {
          "internalType": "address",
          "name": "",
          "type": "address"
        }
      ],
      "stateMutability": "view",
      "type": "function"
    },
    {
      "inputs": [],
      "name": "owner",
      "outputs": [
        {
          "internalType": "address",
          "name": "",
          "type": "address"
        }
      ],
      "stateMutability": "view",
      "type": "function"
    },
    {
      "inputs": [
        {
          "internalType": "uint256",
          "name": "oldEpochId",
          "type": "uint256"
        },
        {
          "internalType": "uint256",
          "name": "newEpochId",
          "type": "uint256"
        },
        {
          "internalType": "uint256",
          "name": "startBlock",
          "type": "uint256"
        },
        {
          "internalType": "uint256",
          "name": "endBlock",
          "type": "uint256"
        },
        {
          "internalType": "address",
          "name": "newSigner",
          "type": "address"
        }
      ],
      "name": "recommitEpoch",
      "outputs": [],
      "stateMutability": "nonpayable",
      "type": "function"
    },
    {
      "inputs": [],
      "name": "renounceOwnership",
      "outputs": [],
      "stateMutability": "nonpayable",
      "type": "function"
    },
    {
      "inputs": [
        {
          "internalType": "address",
          "name": "newOwner",
          "type": "address"
        }
      ],
      "name": "transferOwnership",
      "outputs": [],
      "stateMutability": "nonpayable",
      "type": "function"
    }
  ],
  "transactionHash": "0x17832718a2351d306e7494f0b9f9eb500e88fb644673318f911cbfacc2cf28fd",
  "args": [],
  "numDeployments": 1,
  "solcInputHash": "a7e35fc6703ca8499278a5f4b17aebd4",
  "bytecode": "0x608060405234801561001057600080fd5b50611492806100206000396000f3fe608060405234801561001057600080fd5b50600436106101515760003560e01c80636903beb4116100cd578063c0f1d5a111610081578063d13f90b411610066578063d13f90b414610302578063e0bf78c114610315578063f2fde38b1461032857600080fd5b8063c0f1d5a114610288578063c6b61e4c1461029b57600080fd5b806376671808116100b2578063766718081461022a57806376a57d371461026e5780638da5cb5b1461027757600080fd5b80636903beb41461021a578063715018a61461022257600080fd5b80633edae769116101245780634fb71bdd116101095780634fb71bdd146101eb57806357d775f8146101fe578063643dbfce1461020757600080fd5b80633edae769146101c557806346df33d2146101d857600080fd5b80630f46379b14610156578063111f46301461017257806324316ccb1461019d5780632c91c679146101b2575b600080fd5b61015f60665481565b6040519081526020015b60405180910390f35b606954610185906001600160a01b031681565b6040516001600160a01b039091168152602001610169565b6101b06101ab3660046112df565b61033b565b005b6101b06101c0366004611314565b61043b565b6101856101d33660046112df565b610826565b61015f6101e63660046112df565b610885565b6101b06101f936600461135d565b61093e565b61015f60655481565b6101b061021536600461139c565b610c58565b61015f610d04565b6101b0610d38565b610232610d4c565b6040516101699190815181526020808301516001600160a01b031690820152604080830151908201526060918201519181019190915260800190565b61015f60675481565b6033546001600160a01b0316610185565b606854610185906001600160a01b031681565b6102da6102a93660046112df565b606a60205260009081526040902080546001820154600283015460039093015491926001600160a01b039091169184565b604080519485526001600160a01b039093166020850152918301526060820152608001610169565b6101b06103103660046113be565b610dfc565b61015f6103233660046112df565b6110a0565b6101b061033636600461139c565b6110c1565b6069546001600160a01b031633148061035e57506033546001600160a01b031633145b6103af5760405162461bcd60e51b815260206004820152601060248201527f4e6f74204d7063206f72204f776e65720000000000000000000000000000000060448201526064015b60405180910390fd5b600081116103ff5760405162461bcd60e51b815260206004820152601860248201527f496e76616c6964206e65772065706f6368206c656e677468000000000000000060448201526064016103a6565b60658190556040518181527fb33a1f54dde4e0082c45281b338d78b2c4b5be163b6ffffa5d0d6d1050ba5a58906020015b60405180910390a150565b6069546001600160a01b0316331461047f5760405162461bcd60e51b81526020600482015260076024820152664e6f74204d706360c81b60448201526064016103a6565b4383146104ce5760405162461bcd60e51b815260206004820152601360248201527f496e76616c696420737461727420626c6f636b0000000000000000000000000060448201526064016103a6565b60006104d8610d04565b90508086111561052a5760405162461bcd60e51b815260206004820152601260248201527f496e76616c6964206f6c6445706f63684964000000000000000000000000000060448201526064016103a6565b8086036106ab576000818152606a6020526040902061054a600143611421565b600382015561055a82600161143a565b86146105a85760405162461bcd60e51b815260206004820152601260248201527f496e76616c6964206e657745706f63684964000000000000000000000000000060448201526064016103a6565b84841161060a5760405162461bcd60e51b815260206004820152602a60248201527f456e6420626c6f636b206d7573742062652067726561746572207468616e20736044820152697461727420626c6f636b60b01b60648201526084016103a6565b50604080516080810182528681526001600160a01b0384811660208084019182528385018981526060850189815260008c8152606a909352958220945185559151600180860180546001600160a01b0319169290951691909117909355905160028401559251600390920191909155606b805491820181559091527fbd43cb8ece8cd1863bcd6082d65c5b0d25665b1ce17980f0da43c0ed545f98b4018590555b6001811180156106c457506106c1600182611421565b86145b156107d2576000868152606a602052604090206106e2600143611421565b60038201558582146107365760405162461bcd60e51b815260206004820152601260248201527f496e76616c6964206e657745706f63684964000000000000000000000000000060448201526064016103a6565b8484116107985760405162461bcd60e51b815260206004820152602a60248201527f456e6420626c6f636b206d7573742062652067726561746572207468616e20736044820152697461727420626c6f636b60b01b60648201526084016103a6565b506000858152606a602052604090206001810180546001600160a01b0319166001600160a01b038516179055600281018590556003018390555b60408051858152602081018590526001600160a01b038416818301529051869188917f2555d8fe1de86f68f4f9918cdd7c647eaebcc50009b03367c7cf4676a929c0709181900360600190a3505050505050565b600060675482116108425750506068546001600160a01b031690565b600061084d83610885565b6000818152606a602052604081208054929350919003610871575060009392505050565b600101546001600160a01b03169392505050565b606b546000905b8015610934576000606a81606b6108a4600186611421565b815481106108b4576108b461144d565b60009182526020808320909101548352828101939093526040918201902081516080810183528154815260018201546001600160a01b0316938101939093526002810154918301829052600301546060830152909150841080159061091d575080606001518411155b1561092a57519392505050565b506000190161088c565b5060001992915050565b6069546001600160a01b031633146109825760405162461bcd60e51b81526020600482015260076024820152664e6f74204d706360c81b60448201526064016103a6565b600061098c610d04565b905061099981600161143a565b85146109e75760405162461bcd60e51b815260206004820152601060248201527f496e76616c69642065706f63682069640000000000000000000000000000000060448201526064016103a6565b838311610a495760405162461bcd60e51b815260206004820152602a60248201527f456e6420626c6f636b206d7573742062652067726561746572207468616e20736044820152697461727420626c6f636b60b01b60648201526084016103a6565b606554610a568585611421565b610a6190600161143a565b610a6b9190611463565b15610ade5760405162461bcd60e51b815260206004820152602660248201527f4d69736d617463682065706f6368206c656e67746820616e6420626c6f636b2060448201527f6c656e677468000000000000000000000000000000000000000000000000000060648201526084016103a6565b6000818152606a6020526040902060038101548590610afe90600161143a565b14610b715760405162461bcd60e51b815260206004820152603b60248201527f537461727420626c6f636b206d7573742062652067726561746572207468616e60448201527f2063757272656e7445706f63682e656e64426c6f636b2062792031000000000060648201526084016103a6565b604080516080810182528781526001600160a01b0385811660208084018281528486018b815260608087018c815260008f8152606a86528981209851895593516001808a0180546001600160a01b0319169290991691909117909755915160028801559051600390960195909555606b8054948501815590527fbd43cb8ece8cd1863bcd6082d65c5b0d25665b1ce17980f0da43c0ed545f98b49092018a905583518981529182018890529281019290925287917f9030849b7c46dbbea7911d67c5814a2ab19c0704c448defc9b87589447844cc6910160405180910390a2505050505050565b610c60611151565b6001600160a01b038116610cb65760405162461bcd60e51b815260206004820152600f60248201527f496e76616c6964206e6577206d7063000000000000000000000000000000000060448201526064016103a6565b606980546001600160a01b0319166001600160a01b0383169081179091556040519081527f9416d5b743f4c1409b0213ee5d1e57e8515f4be68a32fbbda85f838891b421da90602001610430565b606b805460009190610d1890600190611421565b81548110610d2857610d2861144d565b9060005260206000200154905090565b610d40611151565b610d4a60006111ab565b565b610d8060405180608001604052806000815260200160006001600160a01b0316815260200160008152602001600081525090565b606b805460009190610d9490600190611421565b81548110610da457610da461144d565b60009182526020808320909101548252606a815260409182902082516080810184528154815260018201546001600160a01b031692810192909252600281015492820192909252600390910154606082015292915050565b600054610100900460ff1615808015610e1c5750600054600160ff909116105b80610e365750303b158015610e36575060005460ff166001145b610ea85760405162461bcd60e51b815260206004820152602e60248201527f496e697469616c697a61626c653a20636f6e747261637420697320616c72656160448201527f647920696e697469616c697a656400000000000000000000000000000000000060648201526084016103a6565b6000805460ff191660011790558015610ecb576000805461ff0019166101001790555b610ed36111fd565b606880546001600160a01b03199081166001600160a01b0389811691821784556069805484168a831617905560668881556067888155606588905560408051608081018252600080825260208083019788528284018e815260608085018f8152848052606a845294517f6021fa82de881996a3e5fd2d032f74dfe72746b8a66c5510d4ab1a3cb78915075598517f6021fa82de881996a3e5fd2d032f74dfe72746b8a66c5510d4ab1a3cb78915088054909b169089161790995597517f6021fa82de881996a3e5fd2d032f74dfe72746b8a66c5510d4ab1a3cb78915095590517f6021fa82de881996a3e5fd2d032f74dfe72746b8a66c5510d4ab1a3cb789150a55606b80546001810182559082527fbd43cb8ece8cd1863bcd6082d65c5b0d25665b1ce17980f0da43c0ed545f98b401819055925491549654815192835295820196909652939091169383019390935282917f9030849b7c46dbbea7911d67c5814a2ab19c0704c448defc9b87589447844cc6910160405180910390a2508015611098576000805461ff0019169055604051600181527f7f26b83ff96e1f2b6a682f133852f6798a09c465da95921460cefb38474024989060200160405180910390a15b505050505050565b606b81815481106110b057600080fd5b600091825260209091200154905081565b6110c9611151565b6001600160a01b0381166111455760405162461bcd60e51b815260206004820152602660248201527f4f776e61626c653a206e6577206f776e657220697320746865207a65726f206160448201527f646472657373000000000000000000000000000000000000000000000000000060648201526084016103a6565b61114e816111ab565b50565b6033546001600160a01b03163314610d4a5760405162461bcd60e51b815260206004820181905260248201527f4f776e61626c653a2063616c6c6572206973206e6f7420746865206f776e657260448201526064016103a6565b603380546001600160a01b038381166001600160a01b0319831681179093556040519116919082907f8be0079c531659141344cd1fd0a4f28419497f9722a3daafe3b4186f6b6457e090600090a35050565b600054610100900460ff166112685760405162461bcd60e51b815260206004820152602b60248201527f496e697469616c697a61626c653a20636f6e7472616374206973206e6f74206960448201526a6e697469616c697a696e6760a81b60648201526084016103a6565b610d4a600054610100900460ff166112d65760405162461bcd60e51b815260206004820152602b60248201527f496e697469616c697a61626c653a20636f6e7472616374206973206e6f74206960448201526a6e697469616c697a696e6760a81b60648201526084016103a6565b610d4a336111ab565b6000602082840312156112f157600080fd5b5035919050565b80356001600160a01b038116811461130f57600080fd5b919050565b600080600080600060a0868803121561132c57600080fd5b85359450602086013593506040860135925060608601359150611351608087016112f8565b90509295509295909350565b6000806000806080858703121561137357600080fd5b843593506020850135925060408501359150611391606086016112f8565b905092959194509250565b6000602082840312156113ae57600080fd5b6113b7826112f8565b9392505050565b600080600080600060a086880312156113d657600080fd5b6113df866112f8565b94506113ed602087016112f8565b94979496505050506040830135926060810135926080909101359150565b634e487b7160e01b600052601160045260246000fd5b818103818111156114345761143461140b565b92915050565b808201808211156114345761143461140b565b634e487b7160e01b600052603260045260246000fd5b60008261148057634e487b7160e01b600052601260045260246000fd5b50069056fea164736f6c6343000814000a",
  "devdoc": {
    "events": {
      "Initialized(uint8)": {
        "details": "Triggered when the contract has been initialized or reinitialized."
      }
    },
    "kind": "dev",
    "methods": {
      "owner()": {
        "details": "Returns the address of the current owner."
      },
      "renounceOwnership()": {
        "details": "Leaves the contract without owner. It will not be possible to call `onlyOwner` functions. Can only be called by the current owner. NOTE: Renouncing ownership will leave the contract without an owner, thereby disabling any functionality that is only available to the owner."
      },
      "transferOwnership(address)": {
        "details": "Transfers ownership of the contract to a new account (`newOwner`). Can only be called by the current owner."
      }
    },
    "version": 1
  },
  "userdoc": {
    "kind": "user",
    "methods": {},
    "version": 1
  },
  "storageLayout": {
    "storage": [
      {
        "astId": 139,
        "contract": "contracts/MetisSequencerSet.sol:MetisSequencerSet",
        "label": "_initialized",
        "offset": 0,
        "slot": "0",
        "type": "t_uint8"
      },
      {
        "astId": 142,
        "contract": "contracts/MetisSequencerSet.sol:MetisSequencerSet",
        "label": "_initializing",
        "offset": 1,
        "slot": "0",
        "type": "t_bool"
      },
      {
        "astId": 809,
        "contract": "contracts/MetisSequencerSet.sol:MetisSequencerSet",
        "label": "__gap",
        "offset": 0,
        "slot": "1",
        "type": "t_array(t_uint256)50_storage"
      },
      {
        "astId": 11,
        "contract": "contracts/MetisSequencerSet.sol:MetisSequencerSet",
        "label": "_owner",
        "offset": 0,
        "slot": "51",
        "type": "t_address"
      },
      {
        "astId": 131,
        "contract": "contracts/MetisSequencerSet.sol:MetisSequencerSet",
        "label": "__gap",
        "offset": 0,
        "slot": "52",
        "type": "t_array(t_uint256)49_storage"
      },
      {
        "astId": 9441,
        "contract": "contracts/MetisSequencerSet.sol:MetisSequencerSet",
        "label": "epochLength",
        "offset": 0,
        "slot": "101",
        "type": "t_uint256"
      },
      {
        "astId": 9443,
        "contract": "contracts/MetisSequencerSet.sol:MetisSequencerSet",
        "label": "firstStartBlock",
        "offset": 0,
        "slot": "102",
        "type": "t_uint256"
      },
      {
        "astId": 9445,
        "contract": "contracts/MetisSequencerSet.sol:MetisSequencerSet",
        "label": "firstEndBlock",
        "offset": 0,
        "slot": "103",
        "type": "t_uint256"
      },
      {
        "astId": 9447,
        "contract": "contracts/MetisSequencerSet.sol:MetisSequencerSet",
        "label": "initialSequencer",
        "offset": 0,
        "slot": "104",
        "type": "t_address"
      },
      {
        "astId": 9449,
        "contract": "contracts/MetisSequencerSet.sol:MetisSequencerSet",
        "label": "mpcAddress",
        "offset": 0,
        "slot": "105",
        "type": "t_address"
      },
      {
        "astId": 9463,
        "contract": "contracts/MetisSequencerSet.sol:MetisSequencerSet",
        "label": "epochs",
        "offset": 0,
        "slot": "106",
        "type": "t_mapping(t_uint256,t_struct(Epoch)9458_storage)"
      },
      {
        "astId": 9466,
        "contract": "contracts/MetisSequencerSet.sol:MetisSequencerSet",
        "label": "epochNumbers",
        "offset": 0,
        "slot": "107",
        "type": "t_array(t_uint256)dyn_storage"
      }
    ],
    "types": {
      "t_address": {
        "encoding": "inplace",
        "label": "address",
        "numberOfBytes": "20"
      },
      "t_array(t_uint256)49_storage": {
        "base": "t_uint256",
        "encoding": "inplace",
        "label": "uint256[49]",
        "numberOfBytes": "1568"
      },
      "t_array(t_uint256)50_storage": {
        "base": "t_uint256",
        "encoding": "inplace",
        "label": "uint256[50]",
        "numberOfBytes": "1600"
      },
      "t_array(t_uint256)dyn_storage": {
        "base": "t_uint256",
        "encoding": "dynamic_array",
        "label": "uint256[]",
        "numberOfBytes": "32"
      },
      "t_bool": {
        "encoding": "inplace",
        "label": "bool",
        "numberOfBytes": "1"
      },
      "t_mapping(t_uint256,t_struct(Epoch)9458_storage)": {
        "encoding": "mapping",
        "key": "t_uint256",
        "label": "mapping(uint256 => struct MetisSequencerSet.Epoch)",
        "numberOfBytes": "32",
        "value": "t_struct(Epoch)9458_storage"
      },
      "t_struct(Epoch)9458_storage": {
        "encoding": "inplace",
        "label": "struct MetisSequencerSet.Epoch",
        "members": [
          {
            "astId": 9451,
            "contract": "contracts/MetisSequencerSet.sol:MetisSequencerSet",
            "label": "number",
            "offset": 0,
            "slot": "0",
            "type": "t_uint256"
          },
          {
            "astId": 9453,
            "contract": "contracts/MetisSequencerSet.sol:MetisSequencerSet",
            "label": "signer",
            "offset": 0,
            "slot": "1",
            "type": "t_address"
          },
          {
            "astId": 9455,
            "contract": "contracts/MetisSequencerSet.sol:MetisSequencerSet",
            "label": "startBlock",
            "offset": 0,
            "slot": "2",
            "type": "t_uint256"
          },
          {
            "astId": 9457,
            "contract": "contracts/MetisSequencerSet.sol:MetisSequencerSet",
            "label": "endBlock",
            "offset": 0,
            "slot": "3",
            "type": "t_uint256"
          }
        ],
        "numberOfBytes": "128"
      },
      "t_uint256": {
        "encoding": "inplace",
        "label": "uint256",
        "numberOfBytes": "32"
      },
      "t_uint8": {
        "encoding": "inplace",
        "label": "uint8",
        "numberOfBytes": "1"
      }
    }
  }
}