{
  "address": "0x5C358cc2400f56A73c33b43E8A5924a52a1451A2",
  "abi": [
    {
      "anonymous": false,
      "inputs": [
        {
          "indexed": false,
          "internalType": "uint8",
          "name": "version",
          "type": "uint8"
        }
      ],
      "name": "Initialized",
      "type": "event"
    },
    {
      "anonymous": false,
      "inputs": [
        {
          "indexed": true,
          "internalType": "address",
          "name": "previousOwner",
          "type": "address"
        },
        {
          "indexed": true,
          "internalType": "address",
          "name": "newOwner",
          "type": "address"
        }
      ],
      "name": "OwnershipTransferred",
      "type": "event"
    },
    {
      "anonymous": false,
      "inputs": [
        {
          "indexed": false,
          "internalType": "address",
          "name": "account",
          "type": "address"
        }
      ],
      "name": "Paused",
      "type": "event"
    },
    {
      "anonymous": false,
      "inputs": [
        {
          "indexed": false,
          "internalType": "uint256",
          "name": "sequencerId",
          "type": "uint256"
        },
        {
          "indexed": false,
          "internalType": "address",
          "name": "recipient",
          "type": "address"
        }
      ],
      "name": "SequencerRewardRecipientChanged",
      "type": "event"
    },
    {
      "anonymous": false,
      "inputs": [
        {
          "indexed": false,
          "internalType": "uint256",
          "name": "_newCurrentBatch",
          "type": "uint256"
        }
      ],
      "name": "SetCurrentBatch",
      "type": "event"
    },
    {
      "anonymous": false,
      "inputs": [
        {
          "indexed": false,
          "internalType": "address",
          "name": "account",
          "type": "address"
        }
      ],
      "name": "Unpaused",
      "type": "event"
    },
    {
      "anonymous": false,
      "inputs": [
        {
          "indexed": false,
          "internalType": "address",
          "name": "_newLockingInfo",
          "type": "address"
        }
      ],
      "name": "UpdateLockingInfo",
      "type": "event"
    },
    {
      "anonymous": false,
      "inputs": [
        {
          "indexed": false,
          "internalType": "uint256",
          "name": "_newMaxLock",
          "type": "uint256"
        }
      ],
      "name": "UpdateMaxAmounts",
      "type": "event"
    },
    {
      "anonymous": false,
      "inputs": [
        {
          "indexed": false,
          "internalType": "uint256",
          "name": "_newMinLock",
          "type": "uint256"
        }
      ],
      "name": "UpdateMinAmounts",
      "type": "event"
    },
    {
      "anonymous": false,
      "inputs": [
        {
          "indexed": false,
          "internalType": "address",
          "name": "_newMpc",
          "type": "address"
        }
      ],
      "name": "UpdateMpc",
      "type": "event"
    },
    {
      "anonymous": false,
      "inputs": [
        {
          "indexed": false,
          "internalType": "address",
          "name": "_newNftContract",
          "type": "address"
        }
      ],
      "name": "UpdateNFTContract",
      "type": "event"
    },
    {
      "anonymous": false,
      "inputs": [
        {
          "indexed": false,
          "internalType": "uint256",
          "name": "_newLimit",
          "type": "uint256"
        }
      ],
      "name": "UpdateSignerUpdateLimit",
      "type": "event"
    },
    {
      "anonymous": false,
      "inputs": [
        {
          "indexed": false,
          "internalType": "address",
          "name": "user",
          "type": "address"
        },
        {
          "indexed": false,
          "internalType": "bool",
          "name": "verified",
          "type": "bool"
        }
      ],
      "name": "WhiteListAdded",
      "type": "event"
    },
    {
      "inputs": [],
      "name": "NFTContract",
      "outputs": [
        {
          "internalType": "contract LockingNFT",
          "name": "",
          "type": "address"
        }
      ],
      "stateMutability": "view",
      "type": "function"
    },
    {
      "inputs": [],
      "name": "NFTCounter",
      "outputs": [
        {
          "internalType": "uint256",
          "name": "",
          "type": "uint256"
        }
      ],
      "stateMutability": "view",
      "type": "function"
    },
    {
      "inputs": [],
      "name": "WITHDRAWAL_DELAY",
      "outputs": [
        {
          "internalType": "uint256",
          "name": "",
          "type": "uint256"
        }
      ],
      "stateMutability": "view",
      "type": "function"
    },
    {
      "inputs": [
        {
          "internalType": "uint256",
          "name": "",
          "type": "uint256"
        }
      ],
      "name": "batchSubmitHistory",
      "outputs": [
        {
          "internalType": "bool",
          "name": "",
          "type": "bool"
        }
      ],
      "stateMutability": "view",
      "type": "function"
    },
    {
      "inputs": [
        {
          "internalType": "uint256",
          "name": "batchId",
          "type": "uint256"
        },
        {
          "internalType": "address",
          "name": "payeer",
          "type": "address"
        },
        {
          "internalType": "uint256",
          "name": "startEpoch",
          "type": "uint256"
        },
        {
          "internalType": "uint256",
          "name": "endEpoch",
          "type": "uint256"
        },
        {
          "internalType": "address[]",
          "name": "_sequencers",
          "type": "address[]"
        },
        {
          "internalType": "uint256[]",
          "name": "finishedBlocks",
          "type": "uint256[]"
        },
        {
          "internalType": "bytes",
          "name": "signature",
          "type": "bytes"
        }
      ],
      "name": "batchSubmitRewards",
      "outputs": [
        {
          "internalType": "uint256",
          "name": "",
          "type": "uint256"
        }
      ],
      "stateMutability": "payable",
      "type": "function"
    },
    {
      "inputs": [],
      "name": "bridge",
      "outputs": [
        {
          "internalType": "address",
          "name": "",
          "type": "address"
        }
      ],
      "stateMutability": "view",
      "type": "function"
    },
    {
      "inputs": [],
      "name": "currentBatch",
      "outputs": [
        {
          "internalType": "uint256",
          "name": "",
          "type": "uint256"
        }
      ],
      "stateMutability": "view",
      "type": "function"
    },
    {
      "inputs": [],
      "name": "currentSequencerSetSize",
      "outputs": [
        {
          "internalType": "uint256",
          "name": "",
          "type": "uint256"
        }
      ],
      "stateMutability": "view",
      "type": "function"
    },
    {
      "inputs": [],
      "name": "currentSequencerSetTotalLock",
      "outputs": [
        {
          "internalType": "uint256",
          "name": "",
          "type": "uint256"
        }
      ],
      "stateMutability": "view",
      "type": "function"
    },
    {
      "inputs": [],
      "name": "currentUnlockedInit",
      "outputs": [
        {
          "internalType": "uint256",
          "name": "",
          "type": "uint256"
        }
      ],
      "stateMutability": "view",
      "type": "function"
    },
    {
      "inputs": [
        {
          "internalType": "uint256",
          "name": "blockHeight",
          "type": "uint256"
        }
      ],
      "name": "fetchMpcAddress",
      "outputs": [
        {
          "internalType": "address",
          "name": "",
          "type": "address"
        }
      ],
      "stateMutability": "view",
      "type": "function"
    },
    {
      "inputs": [
        {
          "internalType": "uint256",
          "name": "sequencerId",
          "type": "uint256"
        },
        {
          "internalType": "uint32",
          "name": "l2Gas",
          "type": "uint32"
        }
      ],
      "name": "forceUnlock",
      "outputs": [],
      "stateMutability": "nonpayable",
      "type": "function"
    },
    {
      "inputs": [
        {
          "internalType": "address",
          "name": "user",
          "type": "address"
        }
      ],
      "name": "getSequencerId",
      "outputs": [
        {
          "internalType": "uint256",
          "name": "",
          "type": "uint256"
        }
      ],
      "stateMutability": "view",
      "type": "function"
    },
    {
      "inputs": [
        {
          "internalType": "address",
          "name": "_bridge",
          "type": "address"
        },
        {
          "internalType": "address",
          "name": "_l1Token",
          "type": "address"
        },
        {
          "internalType": "address",
          "name": "_l2Token",
          "type": "address"
        },
        {
          "internalType": "address",
          "name": "_NFTContract",
          "type": "address"
        },
        {
          "internalType": "address",
          "name": "_mpc",
          "type": "address"
        },
        {
          "internalType": "uint256",
          "name": "_l2ChainId",
          "type": "uint256"
        }
      ],
      "name": "initialize",
      "outputs": [],
      "stateMutability": "nonpayable",
      "type": "function"
    },
    {
      "inputs": [
        {
          "internalType": "uint256",
          "name": "sequencerId",
          "type": "uint256"
        }
      ],
      "name": "isSequencer",
      "outputs": [
        {
          "internalType": "bool",
          "name": "",
          "type": "bool"
        }
      ],
      "stateMutability": "view",
      "type": "function"
    },
    {
      "inputs": [],
      "name": "l1Token",
      "outputs": [
        {
          "internalType": "address",
          "name": "",
          "type": "address"
        }
      ],
      "stateMutability": "view",
      "type": "function"
    },
    {
      "inputs": [],
      "name": "l2ChainId",
      "outputs": [
        {
          "internalType": "uint256",
          "name": "",
          "type": "uint256"
        }
      ],
      "stateMutability": "view",
      "type": "function"
    },
    {
      "inputs": [],
      "name": "l2Token",
      "outputs": [
        {
          "internalType": "address",
          "name": "",
          "type": "address"
        }
      ],
      "stateMutability": "view",
      "type": "function"
    },
    {
      "inputs": [],
      "name": "lastRewardEpochId",
      "outputs": [
        {
          "internalType": "uint256",
          "name": "",
          "type": "uint256"
        }
      ],
      "stateMutability": "view",
      "type": "function"
    },
    {
      "inputs": [],
      "name": "lastRewardTime",
      "outputs": [
        {
          "internalType": "uint256",
          "name": "",
          "type": "uint256"
        }
      ],
      "stateMutability": "view",
      "type": "function"
    },
    {
      "inputs": [
        {
          "internalType": "uint256",
          "name": "",
          "type": "uint256"
        }
      ],
      "name": "latestSignerUpdateBatch",
      "outputs": [
        {
          "internalType": "uint256",
          "name": "",
          "type": "uint256"
        }
      ],
      "stateMutability": "view",
      "type": "function"
    },
    {
      "inputs": [
        {
          "internalType": "address",
          "name": "user",
          "type": "address"
        },
        {
          "internalType": "uint256",
          "name": "amount",
          "type": "uint256"
        },
        {
          "internalType": "bytes",
          "name": "signerPubkey",
          "type": "bytes"
        }
      ],
      "name": "lockFor",
      "outputs": [],
      "stateMutability": "nonpayable",
      "type": "function"
    },
    {
      "inputs": [],
      "name": "logger",
      "outputs": [
        {
          "internalType": "contract LockingInfo",
          "name": "",
          "type": "address"
        }
      ],
      "stateMutability": "view",
      "type": "function"
    },
    {
      "inputs": [],
      "name": "maxLock",
      "outputs": [
        {
          "internalType": "uint256",
          "name": "",
          "type": "uint256"
        }
      ],
      "stateMutability": "view",
      "type": "function"
    },
    {
      "inputs": [],
      "name": "minLock",
      "outputs": [
        {
          "internalType": "uint256",
          "name": "",
          "type": "uint256"
        }
      ],
      "stateMutability": "view",
      "type": "function"
    },
    {
      "inputs": [],
      "name": "mpcAddress",
      "outputs": [
        {
          "internalType": "address",
          "name": "",
          "type": "address"
        }
      ],
      "stateMutability": "view",
      "type": "function"
    },
    {
      "inputs": [
        {
          "internalType": "uint256",
          "name": "",
          "type": "uint256"
        }
      ],
      "name": "mpcHistory",
      "outputs": [
        {
          "internalType": "uint256",
          "name": "startBlock",
          "type": "uint256"
        },
        {
          "internalType": "address",
          "name": "newMpcAddress",
          "type": "address"
        }
      ],
      "stateMutability": "view",
      "type": "function"
    },
    {
      "inputs": [],
      "name": "owner",
      "outputs": [
        {
          "internalType": "address",
          "name": "",
          "type": "address"
        }
      ],
      "stateMutability": "view",
      "type": "function"
    },
    {
      "inputs": [
        {
          "internalType": "uint256",
          "name": "tokenId",
          "type": "uint256"
        }
      ],
      "name": "ownerOf",
      "outputs": [
        {
          "internalType": "address",
          "name": "",
          "type": "address"
        }
      ],
      "stateMutability": "view",
      "type": "function"
    },
    {
      "inputs": [],
      "name": "paused",
      "outputs": [
        {
          "internalType": "bool",
          "name": "",
          "type": "bool"
        }
      ],
      "stateMutability": "view",
      "type": "function"
    },
    {
      "inputs": [],
      "name": "perSecondReward",
      "outputs": [
        {
          "internalType": "uint256",
          "name": "",
          "type": "uint256"
        }
      ],
      "stateMutability": "view",
      "type": "function"
    },
    {
      "inputs": [
        {
          "internalType": "uint256",
          "name": "sequencerId",
          "type": "uint256"
        },
        {
          "internalType": "uint256",
          "name": "amount",
          "type": "uint256"
        },
        {
          "internalType": "bool",
          "name": "lockRewards",
          "type": "bool"
        }
      ],
      "name": "relock",
      "outputs": [],
      "stateMutability": "nonpayable",
      "type": "function"
    },
    {
      "inputs": [],
      "name": "renounceOwnership",
      "outputs": [],
      "stateMutability": "nonpayable",
      "type": "function"
    },
    {
      "inputs": [
        {
          "internalType": "uint256",
          "name": "sequencerId",
          "type": "uint256"
        }
      ],
      "name": "sequencerLock",
      "outputs": [
        {
          "internalType": "uint256",
          "name": "",
          "type": "uint256"
        }
      ],
      "stateMutability": "view",
      "type": "function"
    },
    {
      "inputs": [
        {
          "internalType": "uint256",
          "name": "sequencerId",
          "type": "uint256"
        }
      ],
      "name": "sequencerReward",
      "outputs": [
        {
          "internalType": "uint256",
          "name": "",
          "type": "uint256"
        }
      ],
      "stateMutability": "view",
      "type": "function"
    },
    {
      "inputs": [],
      "name": "sequencerState",
      "outputs": [
        {
          "internalType": "uint256",
          "name": "amount",
          "type": "uint256"
        },
        {
          "internalType": "uint256",
          "name": "lockerCount",
          "type": "uint256"
        }
      ],
      "stateMutability": "view",
      "type": "function"
    },
    {
      "inputs": [
        {
          "internalType": "uint256",
          "name": "",
          "type": "uint256"
        }
      ],
      "name": "sequencerStateChanges",
      "outputs": [
        {
          "internalType": "int256",
          "name": "amount",
          "type": "int256"
        },
        {
          "internalType": "int256",
          "name": "lockerCount",
          "type": "int256"
        }
      ],
      "stateMutability": "view",
      "type": "function"
    },
    {
      "inputs": [],
      "name": "sequencerThreshold",
      "outputs": [
        {
          "internalType": "uint256",
          "name": "",
          "type": "uint256"
        }
      ],
      "stateMutability": "view",
      "type": "function"
    },
    {
      "inputs": [
        {
          "internalType": "uint256",
          "name": "",
          "type": "uint256"
        }
      ],
      "name": "sequencers",
      "outputs": [
        {
          "internalType": "uint256",
          "name": "amount",
          "type": "uint256"
        },
        {
          "internalType": "uint256",
          "name": "reward",
          "type": "uint256"
        },
        {
          "internalType": "uint256",
          "name": "activationBatch",
          "type": "uint256"
        },
        {
          "internalType": "uint256",
          "name": "deactivationBatch",
          "type": "uint256"
        },
        {
          "internalType": "uint256",
          "name": "deactivationTime",
          "type": "uint256"
        },
        {
          "internalType": "uint256",
          "name": "unlockClaimTime",
          "type": "uint256"
        },
        {
          "internalType": "address",
          "name": "signer",
          "type": "address"
        },
        {
          "internalType": "address",
          "name": "rewardRecipient",
          "type": "address"
        },
        {
          "internalType": "enum LockingPool.Status",
          "name": "status",
          "type": "uint8"
        }
      ],
      "stateMutability": "view",
      "type": "function"
    },
    {
      "inputs": [],
      "name": "setPause",
      "outputs": [],
      "stateMutability": "nonpayable",
      "type": "function"
    },
    {
      "inputs": [
        {
          "internalType": "uint256",
          "name": "sequencerId",
          "type": "uint256"
        },
        {
          "internalType": "address",
          "name": "recipient",
          "type": "address"
        }
      ],
      "name": "setSequencerRewardRecipient",
      "outputs": [],
      "stateMutability": "nonpayable",
      "type": "function"
    },
    {
      "inputs": [],
      "name": "setUnpause",
      "outputs": [],
      "stateMutability": "nonpayable",
      "type": "function"
    },
    {
      "inputs": [
        {
          "internalType": "address",
          "name": "user",
          "type": "address"
        },
        {
          "internalType": "bool",
          "name": "verified",
          "type": "bool"
        }
      ],
      "name": "setWhiteListAddress",
      "outputs": [],
      "stateMutability": "nonpayable",
      "type": "function"
    },
    {
      "inputs": [
        {
          "internalType": "address",
          "name": "",
          "type": "address"
        }
      ],
      "name": "signerToSequencer",
      "outputs": [
        {
          "internalType": "uint256",
          "name": "",
          "type": "uint256"
        }
      ],
      "stateMutability": "view",
      "type": "function"
    },
    {
      "inputs": [],
      "name": "signerUpdateLimit",
      "outputs": [
        {
          "internalType": "uint256",
          "name": "",
          "type": "uint256"
        }
      ],
      "stateMutability": "view",
      "type": "function"
    },
    {
      "inputs": [
        {
          "internalType": "uint256",
          "name": "",
          "type": "uint256"
        }
      ],
      "name": "signers",
      "outputs": [
        {
          "internalType": "address",
          "name": "",
          "type": "address"
        }
      ],
      "stateMutability": "view",
      "type": "function"
    },
    {
      "inputs": [],
      "name": "totalLocked",
      "outputs": [
        {
          "internalType": "uint256",
          "name": "",
          "type": "uint256"
        }
      ],
      "stateMutability": "view",
      "type": "function"
    },
    {
      "inputs": [],
      "name": "totalRewardsLiquidated",
      "outputs": [
        {
          "internalType": "uint256",
          "name": "",
          "type": "uint256"
        }
      ],
      "stateMutability": "view",
      "type": "function"
    },
    {
      "inputs": [
        {
          "internalType": "address",
          "name": "newOwner",
          "type": "address"
        }
      ],
      "name": "transferOwnership",
      "outputs": [],
      "stateMutability": "nonpayable",
      "type": "function"
    },
    {
      "inputs": [
        {
          "internalType": "uint256",
          "name": "sequencerId",
          "type": "uint256"
        },
        {
          "internalType": "uint32",
          "name": "l2Gas",
          "type": "uint32"
        }
      ],
      "name": "unlock",
      "outputs": [],
      "stateMutability": "payable",
      "type": "function"
    },
    {
      "inputs": [
        {
          "internalType": "uint256",
          "name": "sequencerId",
          "type": "uint256"
        },
        {
          "internalType": "uint32",
          "name": "l2Gas",
          "type": "uint32"
        }
      ],
      "name": "unlockClaim",
      "outputs": [],
      "stateMutability": "payable",
      "type": "function"
    },
    {
      "inputs": [
        {
          "internalType": "address",
          "name": "_lockingInfo",
          "type": "address"
        }
      ],
      "name": "updateLockingInfo",
      "outputs": [],
      "stateMutability": "nonpayable",
      "type": "function"
    },
    {
      "inputs": [
        {
          "internalType": "uint256",
          "name": "_maxLock",
          "type": "uint256"
        }
      ],
      "name": "updateMaxAmounts",
      "outputs": [],
      "stateMutability": "nonpayable",
      "type": "function"
    },
    {
      "inputs": [
        {
          "internalType": "uint256",
          "name": "_minLock",
          "type": "uint256"
        }
      ],
      "name": "updateMinAmounts",
      "outputs": [],
      "stateMutability": "nonpayable",
      "type": "function"
    },
    {
      "inputs": [
        {
          "internalType": "address",
          "name": "_newMpc",
          "type": "address"
        }
      ],
      "name": "updateMpc",
      "outputs": [],
      "stateMutability": "nonpayable",
      "type": "function"
    },
    {
      "inputs": [
        {
          "internalType": "address",
          "name": "_nftContract",
          "type": "address"
        }
      ],
      "name": "updateNFTContract",
      "outputs": [],
      "stateMutability": "nonpayable",
      "type": "function"
    },
    {
      "inputs": [
        {
          "internalType": "uint256",
          "name": "newReward",
          "type": "uint256"
        }
      ],
      "name": "updatePerSecondReward",
      "outputs": [],
      "stateMutability": "nonpayable",
      "type": "function"
    },
    {
      "inputs": [
        {
          "internalType": "uint256",
          "name": "newThreshold",
          "type": "uint256"
        }
      ],
      "name": "updateSequencerThreshold",
      "outputs": [],
      "stateMutability": "nonpayable",
      "type": "function"
    },
    {
      "inputs": [
        {
          "internalType": "uint256",
          "name": "sequencerId",
          "type": "uint256"
        },
        {
          "internalType": "bytes",
          "name": "signerPubkey",
          "type": "bytes"
        }
      ],
      "name": "updateSigner",
      "outputs": [],
      "stateMutability": "nonpayable",
      "type": "function"
    },
    {
      "inputs": [
        {
          "internalType": "uint256",
          "name": "_limit",
          "type": "uint256"
        }
      ],
      "name": "updateSignerUpdateLimit",
      "outputs": [],
      "stateMutability": "nonpayable",
      "type": "function"
    },
    {
      "inputs": [
        {
          "internalType": "uint256",
          "name": "newWithdrawDelayTime",
          "type": "uint256"
        }
      ],
      "name": "updateWithdrawDelayTimeValue",
      "outputs": [],
      "stateMutability": "nonpayable",
      "type": "function"
    },
    {
      "inputs": [
        {
          "internalType": "address",
          "name": "",
          "type": "address"
        }
      ],
      "name": "whiteListAddresses",
      "outputs": [
        {
          "internalType": "bool",
          "name": "",
          "type": "bool"
        }
      ],
      "stateMutability": "view",
      "type": "function"
    },
    {
      "inputs": [
        {
          "internalType": "address",
          "name": "",
          "type": "address"
        }
      ],
      "name": "whiteListBoundSequencer",
      "outputs": [
        {
          "internalType": "address",
          "name": "",
          "type": "address"
        }
      ],
      "stateMutability": "view",
      "type": "function"
    },
    {
      "inputs": [
        {
          "internalType": "uint256",
          "name": "sequencerId",
          "type": "uint256"
        },
        {
          "internalType": "uint32",
          "name": "l2Gas",
          "type": "uint32"
        }
      ],
      "name": "withdrawRewards",
      "outputs": [],
      "stateMutability": "payable",
      "type": "function"
    }
  ],
  "transactionHash": "0x1c6ed1e968b994762d1fddb65483605f4ee74263b35ade25e80e087ea5b2896a",
  "args": [],
  "numDeployments": 1,
  "solcInputHash": "23a4193148e160c051d797654ae5f1e5",
  "bytecode": "0x608060405234801561001057600080fd5b506150a1806100206000396000f3fe6080604052600436106103c35760003560e01c8063715018a6116101f2578063c0f00d5a1161010d578063e4a86a99116100a0578063f24ccbfe1161006f578063f24ccbfe14610b88578063f2fde38b14610ba8578063f41a964214610bc8578063f788870c14610be857600080fd5b8063e4a86a9914610b02578063e78cea9214610b22578063ef91cdba14610b42578063f037c63014610b7257600080fd5b8063d431b1ac116100dc578063d431b1ac14610a8a578063d6ae3cd514610a9f578063d83b0e1414610ab5578063ddd1d83014610ad557600080fd5b8063c0f00d5a14610a1e578063ca99e83814610a34578063cd6b838814610a54578063d11d068114610a6a57600080fd5b8063920674dc11610185578063a2512d7911610154578063a2512d791461099b578063af70cba5146109ae578063b3bf1021146109ce578063c01e1bd6146109fe57600080fd5b8063920674dc1461091f5780639231cf741461094f57806395b6ef0c146109655780639ab19a8f1461098557600080fd5b8063848cb5c6116101c1578063848cb5c6146108c45780638da5cb5b146108d95780638ddc74de146108f757806391f1fb731461090a57600080fd5b8063715018a61461085957806371e10cfa1461086e57806376cd940e1461088e57806378627f2b146108a457600080fd5b806333a8545f116102e257806356891412116102755780636352211e116102445780636352211e1461077757806367c7c482146107975780636ba7ccff146107b75780636c0b3e461461084357600080fd5b806356891412146106fc57806356eff267146107125780635aabca4f146107325780635c975abb1461075f57600080fd5b80634b3fbda2116102b15780634b3fbda2146106875780634e3c83f1146106bb578063500d3fc0146106d15780635508d8e1146106e657600080fd5b806333a8545f146105e457806335209ac5146105fa578063387b32dd1461062a5780633e8eef891461065a57600080fd5b806315dcb5cd1161035a5780631f1c6105116103295780631f1c6105146105715780632079fb9a14610591578063262c0e66146105b157806331c2273b146105c457600080fd5b806315dcb5cd1461050857806317396687146105285780631950dd111461053b5780631c7d13a61461055157600080fd5b80631092b047116103965780631092b04714610453578063111f46301461047357806312254b55146104ab57806314e482aa146104e857600080fd5b8063015bb180146103c857806306cfb104146103ea57806307104a241461040a5780630ebb172a1461042a575b600080fd5b3480156103d457600080fd5b506103e86103e336600461483f565b610c1e565b005b3480156103f657600080fd5b506103e8610405366004614878565b61100d565b34801561041657600080fd5b506103e8610425366004614878565b6110a1565b34801561043657600080fd5b50610440609c5481565b6040519081526020015b60405180910390f35b34801561045f57600080fd5b506103e861046e366004614878565b61112e565b34801561047f57600080fd5b5060a954610493906001600160a01b031681565b6040516001600160a01b03909116815260200161044a565b3480156104b757600080fd5b506104cb6104c6366004614878565b6111f4565b604080519283526001600160a01b0390911660208301520161044a565b3480156104f457600080fd5b506103e8610503366004614878565b61122b565b34801561051457600080fd5b50610493610523366004614878565b6112c0565b6103e8610536366004614891565b611355565b34801561054757600080fd5b5061044060aa5481565b34801561055d57600080fd5b5061044061056c3660046148df565b61147c565b34801561057d57600080fd5b506103e861058c366004614878565b6114f8565b34801561059d57600080fd5b506104936105ac366004614878565b611585565b6103e86105bf366004614891565b6115af565b3480156105d057600080fd5b50609b54610493906001600160a01b031681565b3480156105f057600080fd5b5061044060a55481565b34801561060657600080fd5b5061061a610615366004614878565b6117e1565b604051901515815260200161044a565b34801561063657600080fd5b5060ae5460af54610645919082565b6040805192835260208301919091520161044a565b34801561066657600080fd5b506104406106753660046148df565b60ac6020526000908152604090205481565b34801561069357600080fd5b506106456106a2366004614878565b60b0602052600090815260409020805460019091015482565b3480156106c757600080fd5b5061044060a85481565b3480156106dd57600080fd5b5060af54610440565b3480156106f257600080fd5b50610440609f5481565b34801561070857600080fd5b50610440609e5481565b34801561071e57600080fd5b50609954610493906001600160a01b031681565b34801561073e57600080fd5b5061044061074d366004614878565b600090815260ab602052604090205490565b34801561076b57600080fd5b5060655460ff1661061a565b34801561078357600080fd5b50610493610792366004614878565b611816565b3480156107a357600080fd5b506103e86107b23660046148df565b611884565b3480156107c357600080fd5b5061082e6107d2366004614878565b60ab60205260009081526040902080546001820154600283015460038401546004850154600586015460068701546007909701549596949593949293919290916001600160a01b0391821691811690600160a01b900460ff1689565b60405161044a99989796959493929190614919565b34801561084f57600080fd5b5061044060a75481565b34801561086557600080fd5b506103e8611930565b34801561087a57600080fd5b506103e8610889366004614878565b611944565b34801561089a57600080fd5b50610440609d5481565b3480156108b057600080fd5b506103e86108bf3660046148df565b6119d9565b3480156108d057600080fd5b506103e8611a85565b3480156108e557600080fd5b506033546001600160a01b0316610493565b6103e8610905366004614891565b611a95565b34801561091657600080fd5b5060ae54610440565b34801561092b57600080fd5b5061061a61093a3660046148df565b60b26020526000908152604090205460ff1681565b34801561095b57600080fd5b5061044060a45481565b34801561097157600080fd5b506103e861098036600461498f565b611e54565b34801561099157600080fd5b5061044060a25481565b6104406109a9366004614b4e565b6122b7565b3480156109ba57600080fd5b506103e86109c9366004614c66565b612758565b3480156109da57600080fd5b506104406109e9366004614878565b600090815260ab602052604090206001015490565b348015610a0a57600080fd5b50609854610493906001600160a01b031681565b348015610a2a57600080fd5b5061044060a35481565b348015610a4057600080fd5b506103e8610a4f366004614891565b61296a565b348015610a6057600080fd5b5061044060a05481565b348015610a7657600080fd5b506103e8610a853660046148df565b612a2c565b348015610a9657600080fd5b506103e8612bb0565b348015610aab57600080fd5b5061044060b55481565b348015610ac157600080fd5b506103e8610ad0366004614cbf565b612bc0565b348015610ae157600080fd5b50610440610af0366004614878565b60b16020526000908152604090205481565b348015610b0e57600080fd5b506103e8610b1d366004614ce4565b612d7c565b348015610b2e57600080fd5b50609754610493906001600160a01b031681565b348015610b4e57600080fd5b5061061a610b5d366004614878565b60ad6020526000908152604090205460ff1681565b348015610b7e57600080fd5b5061044060a65481565b348015610b9457600080fd5b50609a54610493906001600160a01b031681565b348015610bb457600080fd5b506103e8610bc33660046148df565b612e57565b348015610bd457600080fd5b506103e8610be3366004614d12565b612ee7565b348015610bf457600080fd5b50610493610c033660046148df565b60b3602052600090815260409020546001600160a01b031681565b610c266131f7565b600083815260ab6020526040902054610c865760405162461bcd60e51b815260206004820152601f60248201527f696e76616c69642073657175656e636572206c6f636b656420616d6f756e740060448201526064015b60405180910390fd5b600083815260ab602052604090206003015415610ce55760405162461bcd60e51b815260206004820152600c60248201527f6e6f2072656c6f636b696e6700000000000000000000000000000000000000006044820152606401610c7d565b33600090815260b2602052604090205460ff16610d535760405162461bcd60e51b815260206004820152602660248201527f6d73672073656e6465722073686f756c6420626520696e20746865207768697460448201526519481b1a5cdd60d21b6064820152608401610c7d565b600083815260ab602090815260408083206006015433845260b3909252909120546001600160a01b03908116911614610ddf5760405162461bcd60e51b815260206004820152602860248201527f77686974654164647265737320616e6420626f756e6453657175656e636572206044820152670dad2e6dac2e8c6d60c31b6064820152608401610c7d565b818115610e1757600084815260ab6020526040902060010154610e029084614d6f565b600085815260ab602052604081206001015592505b60008311610e675760405162461bcd60e51b815260206004820152601560248201527f696e76616c69642072656c6f636b20616d6f756e7400000000000000000000006044820152606401610c7d565b600083609e54610e779190614d6f565b609e819055600086815260ab6020526040902054909150610e99908590614d6f565b600086815260ab6020526040902081905560a7541015610efb5760405162461bcd60e51b815260206004820152601960248201527f616d6f756e74206c61726765207468616e206d61784c6f636b000000000000006044820152606401610c7d565b610f078460008061324a565b610f12333084613326565b609a54600086815260ab6020526040908190205490516307c5c28360e41b81526004810188905260248101919091526001600160a01b0390911690637c5c283090604401600060405180830381600087803b158015610f7057600080fd5b505af1158015610f84573d6000803e3d6000fd5b5050609a54600088815260ab6020526040908190205490516332417e2360e21b8152600481018a90526024810191909152604481018590526001600160a01b03909116925063c905f88c91506064015b600060405180830381600087803b158015610fee57600080fd5b505af1158015611002573d6000803e3d6000fd5b505050505050505050565b61101561333e565b600081116110655760405162461bcd60e51b815260206004820152600e60248201527f696e76616c6964205f6c696d69740000000000000000000000000000000000006044820152606401610c7d565b60a88190556040518181527faa85c21e3ef84a69e2213d37b0df2df818a6ec0252244b4411a956e2293d170f906020015b60405180910390a150565b6110a961333e565b600081116110f95760405162461bcd60e51b815260206004820152601060248201527f696e76616c6964205f6d696e4c6f636b000000000000000000000000000000006044820152606401610c7d565b60a68190556040518181527feaf0654a2bc3f772cd56f5160f2b340c6ab0432789d24b37418c16d13f85ad3490602001611096565b61113661333e565b806000036111865760405162461bcd60e51b815260206004820152601460248201527f696e76616c6964206e65775468726573686f6c640000000000000000000000006044820152606401610c7d565b60aa819055609a54604051630f1980a560e41b815260048101839052602481018390526001600160a01b039091169063f1980a50906044015b600060405180830381600087803b1580156111d957600080fd5b505af11580156111ed573d6000803e3d6000fd5b5050505050565b60b4818154811061120457600080fd5b6000918252602090912060029091020180546001909101549091506001600160a01b031682565b61123361333e565b806000036112835760405162461bcd60e51b815260206004820152601160248201527f696e76616c6964206e65775265776172640000000000000000000000000000006044820152606401610c7d565b60a5819055609a54604051632dbe9d3160e21b815260048101839052602481018390526001600160a01b039091169063b6fa74c4906044016111bf565b6000806000600160b4805490506112d79190614d82565b90505b60b481815481106112ed576112ed614d95565b906000526020600020906002020160000154841061133c5760b4818154811061131857611318614d95565b60009182526020909120600160029092020101546001600160a01b0316915061134e565b8061134681614dab565b9150506112da565b5092915050565b33600090815260b2602052604090205460ff166113c35760405162461bcd60e51b815260206004820152602660248201527f6d73672073656e6465722073686f756c6420626520696e20746865207768697460448201526519481b1a5cdd60d21b6064820152608401610c7d565b600082815260ab602090815260408083206006015433845260b3909252909120546001600160a01b0390811691161461144f5760405162461bcd60e51b815260206004820152602860248201527f77686974654164647265737320616e6420626f756e6453657175656e636572206044820152670dad2e6dac2e8c6d60c31b6064820152608401610c7d565b600082815260ab6020526040902060078101546114779084906001600160a01b031684613398565b505050565b609b54604051632f745c5960e01b81526001600160a01b038381166004830152600060248301819052921690632f745c5990604401602060405180830381865afa1580156114ce573d6000803e3d6000fd5b505050506040513d601f19601f820116820180604052508101906114f29190614dc2565b92915050565b61150061333e565b600081116115505760405162461bcd60e51b815260206004820152601060248201527f696e76616c6964205f6d61784c6f636b000000000000000000000000000000006044820152606401610c7d565b60a78190556040518181527f8e94bf4c11cd704dc7bfe91bea29d42a0d6c9afa7f76bff08694ef530ae42c2e90602001611096565b60a1818154811061159557600080fd5b6000918252602090912001546001600160a01b0316905081565b33600090815260b2602052604090205460ff1661161d5760405162461bcd60e51b815260206004820152602660248201527f6d73672073656e6465722073686f756c6420626520696e20746865207768697460448201526519481b1a5cdd60d21b6064820152608401610c7d565b600082815260ab602090815260408083206006015433845260b3909252909120546001600160a01b039081169116146116a95760405162461bcd60e51b815260206004820152602860248201527f77686974654164647265737320616e6420626f756e6453657175656e636572206044820152670dad2e6dac2e8c6d60c31b6064820152608401610c7d565b600082815260ab60205260409020600701546001600160a01b03166117105760405162461bcd60e51b815260206004820152601760248201527f726577617264526563697069656e74206e6f74207365740000000000000000006044820152606401610c7d565b600082815260ab602052604090206007810154600290910154600160a01b90910460ff1690158015906117525750600083815260ab6020526040902060030154155b801561176f5750600181600281111561176d5761176d614903565b145b6117bb5760405162461bcd60e51b815260206004820152601860248201527f696e76616c69642073657175656e6365722073746174757300000000000000006044820152606401610c7d565b6000609d5460016117cc9190614d6f565b90506117db8482600086613561565b50505050565b600081815260ab6020526040812060078101548154600390920154609d546114f293600160a01b90930460ff169291906137d3565b609b546040516331a9108f60e11b8152600481018390526000916001600160a01b031690636352211e90602401602060405180830381865afa158015611860573d6000803e3d6000fd5b505050506040513d601f19601f820116820180604052508101906114f29190614ddb565b61188c61333e565b6001600160a01b0381166118e25760405162461bcd60e51b815260206004820152601460248201527f696e76616c6964205f6c6f636b696e67496e666f0000000000000000000000006044820152606401610c7d565b609a80546001600160a01b0319166001600160a01b0383169081179091556040519081527fa1ac06f5f295091163015710ca4e5ca0303f40e6f3dd6cb99c554d703c0ee7f690602001611096565b61193861333e565b6119426000613812565b565b61194c61333e565b6000811161199c5760405162461bcd60e51b815260206004820152601c60248201527f696e76616c6964206e6577576974686472617744656c617954696d65000000006044820152606401610c7d565b609c819055609a546040516343d2b49b60e01b815260048101839052602481018390526001600160a01b03909116906343d2b49b906044016111bf565b6119e161333e565b6001600160a01b038116611a375760405162461bcd60e51b815260206004820152601460248201527f696e76616c6964205f6e6674436f6e74726163740000000000000000000000006044820152606401610c7d565b609b80546001600160a01b0319166001600160a01b0383169081179091556040519081527f6b004b7db7a4ceb691c66bd356de43d2dd8def042c6e4fb8be233e0ced628da590602001611096565b611a8d61333e565b611942613864565b33600090815260b2602052604090205460ff16611b035760405162461bcd60e51b815260206004820152602660248201527f6d73672073656e6465722073686f756c6420626520696e20746865207768697460448201526519481b1a5cdd60d21b6064820152608401610c7d565b600082815260ab602090815260408083206006015433845260b3909252909120546001600160a01b03908116911614611b8f5760405162461bcd60e51b815260206004820152602860248201527f77686974654164647265737320616e6420626f756e6453657175656e636572206044820152670dad2e6dac2e8c6d60c31b6064820152608401610c7d565b600082815260ab60205260409020600701546001600160a01b0316611bf65760405162461bcd60e51b815260206004820152601760248201527f726577617264526563697069656e74206e6f74207365740000000000000000006044820152606401610c7d565b600082815260ab6020526040902060038101546005909101548115801590611c1e5750428111155b8015611c5757506002600085815260ab6020526040902060070154600160a01b900460ff166002811115611c5457611c54614903565b14155b611ca35760405162461bcd60e51b815260206004820152601160248201527f636c61696d206e6f7420616c6c6f7765640000000000000000000000000000006044820152606401610c7d565b600084815260ab6020526040812054609e54909190611cc3908390614d82565b609e819055600087815260ab6020526040902060070154909150611cf29087906001600160a01b031687613398565b600086815260ab602052604081208181556006810180546001600160a01b03191690556000197fcb32a14641dfad80670595f3e53f5dc52441fb5380c11f8eebcd755e5b33a3d955600701805460ff60a01b19167402000000000000000000000000000000000000000017905560a2805491611d6d83614dab565b9190505550611d7c33836138b6565b609a5460405163492b6d4960e11b81523360048201526024810188905260448101849052606481018390526001600160a01b0390911690639256da9290608401600060405180830381600087803b158015611dd657600080fd5b505af1158015611dea573d6000803e3d6000fd5b5050609b54604051630852cd8d60e31b8152600481018a90526001600160a01b0390911692506342966c689150602401600060405180830381600087803b158015611e3457600080fd5b505af1158015611e48573d6000803e3d6000fd5b50505050505050505050565b600054610100900460ff1615808015611e745750600054600160ff909116105b80611e8e5750303b158015611e8e575060005460ff166001145b611f005760405162461bcd60e51b815260206004820152602e60248201527f496e697469616c697a61626c653a20636f6e747261637420697320616c72656160448201527f647920696e697469616c697a65640000000000000000000000000000000000006064820152608401610c7d565b6000805460ff191660011790558015611f23576000805461ff0019166101001790555b6001600160a01b038716611f795760405162461bcd60e51b815260206004820152600f60248201527f696e76616c6964205f62726964676500000000000000000000000000000000006044820152606401610c7d565b6001600160a01b038616611fcf5760405162461bcd60e51b815260206004820152601060248201527f696e76616c6964205f6c31546f6b656e000000000000000000000000000000006044820152606401610c7d565b6001600160a01b0385166120255760405162461bcd60e51b815260206004820152601060248201527f696e76616c6964205f6c32546f6b656e000000000000000000000000000000006044820152606401610c7d565b6001600160a01b03841661207b5760405162461bcd60e51b815260206004820152601460248201527f696e76616c6964205f4e4654436f6e74726163740000000000000000000000006044820152606401610c7d565b6001600160a01b0383166120d15760405162461bcd60e51b815260206004820152601460248201527f5f6d7063206973207a65726f20616464726573730000000000000000000000006044820152606401610c7d565b609780546001600160a01b03808a166001600160a01b0319928316179092556098805489841690831617905560998054888416908316179055609b805492871692909116919091179055612124836138d1565b156121715760405162461bcd60e51b815260206004820152601260248201527f5f6d7063206973206120636f6e747261637400000000000000000000000000006044820152606401610c7d565b60a980546001600160a01b03199081166001600160a01b03868116918217909355604080518082019091524381526020810191825260b480546001818101835560009290925291517f1c5f5ac147ec2dee04d8ce29bdbebbc58f578e0e1392da66f352a62e5c09c50360029093029283015591517f1c5f5ac147ec2dee04d8ce29bdbebbc58f578e0e1392da66f352a62e5c09c50490910180549093169316929092179055621baf80609c55609d8190556305f5e10060a55569043c33c193756480000060a65569152d02c7e14af680000060a755600a60a881905560aa55609f5560b58290556122606138f9565b61226861396c565b80156122ae576000805461ff0019169055604051600181527f7f26b83ff96e1f2b6a682f133852f6798a09c465da95921460cefb38474024989060200160405180910390a15b50505050505050565b600080609d5460016122c99190614d6f565b905088811461231a5760405162461bcd60e51b815260206004820152601060248201527f696e76616c6964206261746368206964000000000000000000000000000000006044820152606401610c7d565b835185511461236b5760405162461bcd60e51b815260206004820152600f60248201527f6d69736d61746368206c656e67746800000000000000000000000000000000006044820152606401610c7d565b8660a354106123bc5760405162461bcd60e51b815260206004820152601260248201527f696e76616c696420737461727445706f636800000000000000000000000000006044820152606401610c7d565b85871061240b5760405162461bcd60e51b815260206004820152601060248201527f696e76616c696420656e6445706f6368000000000000000000000000000000006044820152606401610c7d565b60a38690556040516000906124309046908c908b908b908b908b903090602001614df8565b60405160208183030381529060405280519060200120905061247f817f19457468657265756d205369676e6564204d6573736167653a0a3332000000006000908152601c91909152603c902090565b9050600061248d82866139df565b60a9549091506001600160a01b038083169116146124ed5760405162461bcd60e51b815260206004820152601560248201527f696e76616c6964206d7063207369676e617475726500000000000000000000006044820152606401610c7d565b600060a454426124fd9190614d82565b60a55461250a9190614e99565b4260a45590506000805b88518110156125465788818151811061252f5761252f614d95565b602002602001015182019150806001019050612514565b5060005b89518110156126c857600060ac60008c848151811061256b5761256b614d95565b60200260200101516001600160a01b03166001600160a01b0316815260200190815260200160002054116125e15760405162461bcd60e51b815260206004820152601360248201527f73657175656e636572206e6f74206578697374000000000000000000000000006044820152606401610c7d565b61262860ac60008c84815181106125fa576125fa614d95565b60200260200101516001600160a01b03166001600160a01b03168152602001908152602001600020546117e1565b6126745760405162461bcd60e51b815260206004820152601160248201527f696e76616c69642073657175656e6365720000000000000000000000000000006044820152606401610c7d565b600061269a84848c858151811061268d5761268d614d95565b6020026020010151613a03565b90506126bf8b83815181106126b1576126b1614d95565b602002602001015182613a19565b5060010161254a565b506126d1613a53565b609a54604051637c446e5960e01b8152600481018f90526001600160a01b0390911690637c446e5990602401600060405180830381600087803b15801561271757600080fd5b505af115801561272b573d6000803e3d6000fd5b505060985461274892506001600160a01b031690508d3085613acd565b509b9a5050505050505050505050565b6127606131f7565b33600090815260b2602052604090205460ff166127ce5760405162461bcd60e51b815260206004820152602660248201527f6d73672073656e6465722073686f756c6420626520696e20746865207768697460448201526519481b1a5cdd60d21b6064820152608401610c7d565b60aa5460af54106128215760405162461bcd60e51b815260206004820152600d60248201527f6e6f206d6f726520736c6f7473000000000000000000000000000000000000006044820152606401610c7d565b60a6548210156128735760405162461bcd60e51b815260206004820152601860248201527f616d6f756e74206c657373207468616e206d696e4c6f636b00000000000000006044820152606401610c7d565b60a7548211156128c55760405162461bcd60e51b815260206004820152601960248201527f616d6f756e74206c61726765207468616e206d61784c6f636b000000000000006044820152606401610c7d565b33600090815260b360205260409020546001600160a01b03161561292b5760405162461bcd60e51b815260206004820152601360248201527f68616420626f756e642073657175656e636572000000000000000000000000006044820152606401610c7d565b612936838383613b65565b5033600081815260b36020526040902080546001600160a01b0319166001600160a01b038616179055611477903084613326565b61297261333e565b600082815260ab602052604090206007810154600290910154600160a01b90910460ff1690158015906129b45750600083815260ab6020526040902060030154155b80156129d1575060018160028111156129cf576129cf614903565b145b612a1d5760405162461bcd60e51b815260206004820152601860248201527f696e76616c69642073657175656e6365722073746174757300000000000000006044820152606401610c7d565b61147783609d54600185613561565b612a3461333e565b612a3d816138d1565b15612a8a5760405162461bcd60e51b815260206004820152601560248201527f5f6e65774d7063206973206120636f6e747261637400000000000000000000006044820152606401610c7d565b6001600160a01b038116612ae05760405162461bcd60e51b815260206004820152601760248201527f5f6e65774d7063206973207a65726f20616464726573730000000000000000006044820152606401610c7d565b60a980546001600160a01b03199081166001600160a01b03848116918217909355604080518082018252438152602080820184815260b4805460018101825560009190915292517f1c5f5ac147ec2dee04d8ce29bdbebbc58f578e0e1392da66f352a62e5c09c503600290940293840155517f1c5f5ac147ec2dee04d8ce29bdbebbc58f578e0e1392da66f352a62e5c09c5049092018054909516919095161790925590519081527fc6759872346bc2093e270f2fa00d99d7bcdde60a410a3e9956b34196d42fee769101611096565b612bb861333e565b611942613e5b565b33600090815260b2602052604090205460ff16612c2e5760405162461bcd60e51b815260206004820152602660248201527f6d73672073656e6465722073686f756c6420626520696e20746865207768697460448201526519481b1a5cdd60d21b6064820152608401610c7d565b600082815260ab602090815260408083206006015433845260b3909252909120546001600160a01b03908116911614612cba5760405162461bcd60e51b815260206004820152602860248201527f77686974654164647265737320616e6420626f756e6453657175656e636572206044820152670dad2e6dac2e8c6d60c31b6064820152608401610c7d565b6001600160a01b038116612d105760405162461bcd60e51b815260206004820152601160248201527f696e76616c696420726563697069656e740000000000000000000000000000006044820152606401610c7d565b600082815260ab60209081526040918290206007810180546001600160a01b0319166001600160a01b038616908117909155835186815292830152917f357bb123cabaf224688e3d8de5feb37d685dc3a27012a7bce1201c49bc369cb6910160405180910390a1505050565b612d8461333e565b6001600160a01b038216600090815260b2602052604090205481151560ff909116151503612df45760405162461bcd60e51b815260206004820152601060248201527f7374617465206e6f74206368616e6765000000000000000000000000000000006044820152606401610c7d565b6001600160a01b038216600081815260b26020908152604091829020805460ff19168515159081179091558251938452908301527faec42ac7f1bb8651906ae6522f50a19429e124e8ea678ef59fd27750759288a2910160405180910390a15050565b612e5f61333e565b6001600160a01b038116612edb5760405162461bcd60e51b815260206004820152602660248201527f4f776e61626c653a206e6577206f776e657220697320746865207a65726f206160448201527f64647265737300000000000000000000000000000000000000000000000000006064820152608401610c7d565b612ee481613812565b50565b33600090815260b2602052604090205460ff16612f555760405162461bcd60e51b815260206004820152602660248201527f6d73672073656e6465722073686f756c6420626520696e20746865207768697460448201526519481b1a5cdd60d21b6064820152608401610c7d565b600082815260ab602090815260408083206006015433845260b3909252909120546001600160a01b03908116911614612fe15760405162461bcd60e51b815260206004820152602860248201527f77686974654164647265737320616e6420626f756e6453657175656e636572206044820152670dad2e6dac2e8c6d60c31b6064820152608401610c7d565b600082815260ab6020526040902060030154156130405760405162461bcd60e51b815260206004820152601060248201527f6578697465642073657175656e636572000000000000000000000000000000006044820152606401610c7d565b600061304b82613e98565b609d5460a854600086815260b16020526040902054929350909161306f9190614d6f565b8110156130be5760405162461bcd60e51b815260206004820152600b60248201527f6e6f7420616c6c6f7765640000000000000000000000000000000000000000006044820152606401610c7d565b600084815260ab60205260409081902060060154609a54915163b80fbce560e01b81526001600160a01b03918216929091169063b80fbce59061310b908890859088908a90600401614f00565b600060405180830381600087803b15801561312557600080fd5b505af1158015613139573d6000803e3d6000fd5b5050505061314681613f6c565b61314f83614072565b6001600160a01b03818116600090815260ac6020908152604080832060001990558684168084528184208a905589845260ab835281842060060180546001600160a01b031990811683179091553380865260b38552838620805490921683179091558a855260b190935292819020869055609b5490516323b872dd60e01b815260048101929092526024820192909252604481018890529116906323b872dd90606401610fd4565b60655460ff16156119425760405162461bcd60e51b815260206004820152601060248201527f5061757361626c653a20706175736564000000000000000000000000000000006044820152606401610c7d565b806000036132d85760008313156132715760ae54613269908490614d6f565b60ae55613297565b60008312156132975761328683600019614f3c565b60ae546132939190614d82565b60ae555b60008213156132b65760af546132ae908390614d6f565b60af55505050565b6000821215611477576132cb82600019614f3c565b60af546132ae9190614d82565b600081815260b06020526040812080548592906132f6908490614f6c565b9091555050600081815260b060205260408120600101805484929061331c908490614f6c565b9091555050505050565b609854611477906001600160a01b0316848484613acd565b6033546001600160a01b031633146119425760405162461bcd60e51b815260206004820181905260248201527f4f776e61626c653a2063616c6c6572206973206e6f7420746865206f776e65726044820152606401610c7d565b6001600160a01b0382166133ee5760405162461bcd60e51b815260206004820152601860248201527f696e76616c69642072657761726420726563697069656e7400000000000000006044820152606401610c7d565b600083815260ab602052604090206001015460a05461340e908290614d6f565b60a055600084815260ab6020526040812060010155609754609854613440916001600160a01b039182169116836141b9565b60975460b5546098546099546040516377c045f160e11b815260048101939093526001600160a01b0391821660248401528116604483015285811660648301526084820184905263ffffffff851660a483015260e060c4830152600060e48301529091169063ef808be2903490610104016000604051808303818588803b1580156134ca57600080fd5b505af11580156134de573d6000803e3d6000fd5b5050609a5460a05460405163e9abe50960e01b8152600481018a90526001600160a01b0389811660248301526044820188905260648201929092529116935063e9abe50992506084019050600060405180830381600087803b15801561354357600080fd5b505af1158015613557573d6000803e3d6000fd5b5050505050505050565b816135d15760af5461357590600390614f94565b60a254613583906001614d6f565b11156135d15760405162461bcd60e51b815260206004820152601260248201527f756e6c6f636b206e6f7420616c6c6f77656400000000000000000000000000006044820152606401610c7d565b600084815260ab602052604080822054609b5491516331a9108f60e11b8152600481018890529092916001600160a01b031690636352211e90602401602060405180830381865afa15801561362a573d6000803e3d6000fd5b505050506040513d601f19601f8201168201806040525081019061364e9190614ddb565b600087815260ab6020526040902060078101805460ff60a01b1916905560038101879055426004909101819055609c5491925061368b9190614d6f565b600087815260ab6020526040812060050191909155609d548611156136b057856136b3565b60005b90506136ca6136c184614fb6565b6000198361324a565b60a280549060006136da83614fd2565b9091555050600087815260ab6020526040902060060154613703906001600160a01b0316613f6c565b600087815260ab602052604090206007015461372a9088906001600160a01b031686613398565b609a54600088815260ab6020526040908190206004808201546005909201549251636337e56160e11b81526001600160a01b0387811692820192909252602481018c9052604481018b90526064810192909252608482019290925260a4810186905291169063c66fcac29060c401600060405180830381600087803b1580156137b257600080fd5b505af11580156137c6573d6000803e3d6000fd5b5050505050505050505050565b6000808411801561380757508215806137eb57508183115b806138075750600185600281111561380557613805614903565b145b90505b949350505050565b603380546001600160a01b038381166001600160a01b0319831681179093556040519116919082907f8be0079c531659141344cd1fd0a4f28419497f9722a3daafe3b4186f6b6457e090600090a35050565b61386c614266565b6065805460ff191690557f5db9ee0a495bf2e6ff9c91a7834c1ba4fdd244a5e8aa4e537bd38aeae4b073aa335b6040516001600160a01b03909116815260200160405180910390a1565b6098546138cd906001600160a01b031683836142b8565b5050565b60006001600160a01b0382166138e957506000919050565b506001600160a01b03163b151590565b600054610100900460ff166139645760405162461bcd60e51b815260206004820152602b60248201527f496e697469616c697a61626c653a20636f6e7472616374206973206e6f74206960448201526a6e697469616c697a696e6760a81b6064820152608401610c7d565b6119426142e8565b600054610100900460ff166139d75760405162461bcd60e51b815260206004820152602b60248201527f496e697469616c697a61626c653a20636f6e7472616374206973206e6f74206960448201526a6e697469616c697a696e6760a81b6064820152608401610c7d565b61194261435c565b60008060006139ee85856143d3565b915091506139fb81614418565b509392505050565b6000613a0f8383614f94565b61380a9085614e99565b6001600160a01b038216600090815260ac602090815260408083205480845260ab909252822060010180549192849261331c908490614d6f565b6000609d546001613a649190614d6f565b600081815260ad60209081526040808320805460ff1916600190811790915560b083528184208251808401909352805480845291015492820183905293945092613ab09290919061324a565b50609d8054600090815260b0602052604081208181556001015555565b6040516001600160a01b03808516602483015283166044820152606481018290526117db9085906323b872dd60e01b906084015b60408051601f198184030181529190526020810180517bffffffffffffffffffffffffffffffffffffffffffffffffffffffff167fffffffff0000000000000000000000000000000000000000000000000000000090931692909217909152614562565b600080613b7183613e98565b9050806001600160a01b0316856001600160a01b031614613bd45760405162461bcd60e51b815260206004820152601e60248201527f7573657220616e64207369676e65725075626b6579206d69736d6174636800006044820152606401610c7d565b609d54609f54609e54600090613beb908890614d6f565b905080609e8190555060405180610120016040528088815260200160008152602001848152602001600081526020016000815260200160008152602001856001600160a01b0316815260200160006001600160a01b0316815260200160016002811115613c5a57613c5a614903565b9052600083815260ab60209081526040918290208351815590830151600182015590820151600280830191909155606083015160038301556080830151600483015560a0830151600583015560c08301516006830180546001600160a01b03199081166001600160a01b039384161790915560e0850151600785018054928316919093169081178355610100860151937fffffffffffffffffffffff0000000000000000000000000000000000000000009092161790600160a01b908490811115613d2757613d27614903565b02179055505050600082815260b1602090815260408083208690556001600160a01b038716835260ac9091528120839055613d6690889060019061324a565b613d71826001614d6f565b609f55613d7d84614072565b609a5460405163056de39160e41b81526001600160a01b03909116906356de391090613db79087908a90879089908e908990600401614feb565b600060405180830381600087803b158015613dd157600080fd5b505af1158015613de5573d6000803e3d6000fd5b5050609b546040516340c10f1960e01b81526001600160a01b038c811660048301526024820187905290911692506340c10f199150604401600060405180830381600087803b158015613e3757600080fd5b505af1158015613e4b573d6000803e3d6000fd5b50939a9950505050505050505050565b613e636131f7565b6065805460ff191660011790557f62e78cea01bee320cd4e420270b5ea74000d11b0c9f74754ebdbfc544b05a2586138993390565b60008151604014613eeb5760405162461bcd60e51b815260206004820152600760248201527f6e6f7420707562000000000000000000000000000000000000000000000000006044820152606401610c7d565b815160208301206001600160a01b03811615801590613f2057506001600160a01b038116600090815260ac6020526040902054155b6114f25760405162461bcd60e51b815260206004820152600e60248201527f696e76616c6964207369676e65720000000000000000000000000000000000006044820152606401610c7d565b60a15460005b8181101561147757826001600160a01b031660a18281548110613f9757613f97614d95565b6000918252602090912001546001600160a01b0316036140605760a1613fbe600184614d82565b81548110613fce57613fce614d95565b60009182526020909120015460a180546001600160a01b039092169183908110613ffa57613ffa614d95565b9060005260206000200160006101000a8154816001600160a01b0302191690836001600160a01b0316021790555060a180548061403957614039615032565b600082815260209020810160001990810180546001600160a01b0319169055019055505050565b8061406a81614fd2565b915050613f72565b60a180546001808201835560008381527faadc37b8ba5645e62f4546802db221593a94729ccbfc5a97d01365a88f64987890920180546001600160a01b0319166001600160a01b038616179055915490916140cc91614d82565b9050805b801561416b57600060a16140e5600184614d82565b815481106140f5576140f5614d95565b6000918252602090912001546001600160a01b039081169150841681101561411d575061416b565b8060a1838154811061413157614131614d95565b600091825260209091200180546001600160a01b0319166001600160a01b03929092169190911790555061416481614dab565b90506140d0565b818114611477578260a1828154811061418657614186614d95565b9060005260206000200160006101000a8154816001600160a01b0302191690836001600160a01b03160217905550505050565b604051636eb1769f60e11b81523060048201526001600160a01b0383811660248301526000919085169063dd62ed3e90604401602060405180830381865afa158015614209573d6000803e3d6000fd5b505050506040513d601f19601f8201168201806040525081019061422d9190614dc2565b90506117db8463095ea7b360e01b856142468686614d6f565b6040516001600160a01b0390921660248301526044820152606401613b01565b60655460ff166119425760405162461bcd60e51b815260206004820152601460248201527f5061757361626c653a206e6f74207061757365640000000000000000000000006044820152606401610c7d565b6040516001600160a01b03831660248201526044810182905261147790849063a9059cbb60e01b90606401613b01565b600054610100900460ff166143535760405162461bcd60e51b815260206004820152602b60248201527f496e697469616c697a61626c653a20636f6e7472616374206973206e6f74206960448201526a6e697469616c697a696e6760a81b6064820152608401610c7d565b61194233613812565b600054610100900460ff166143c75760405162461bcd60e51b815260206004820152602b60248201527f496e697469616c697a61626c653a20636f6e7472616374206973206e6f74206960448201526a6e697469616c697a696e6760a81b6064820152608401610c7d565b6065805460ff19169055565b60008082516041036144095760208301516040840151606085015160001a6143fd8782858561464a565b94509450505050614411565b506000905060025b9250929050565b600081600481111561442c5761442c614903565b036144345750565b600181600481111561444857614448614903565b036144955760405162461bcd60e51b815260206004820152601860248201527f45434453413a20696e76616c6964207369676e617475726500000000000000006044820152606401610c7d565b60028160048111156144a9576144a9614903565b036144f65760405162461bcd60e51b815260206004820152601f60248201527f45434453413a20696e76616c6964207369676e6174757265206c656e677468006044820152606401610c7d565b600381600481111561450a5761450a614903565b03612ee45760405162461bcd60e51b815260206004820152602260248201527f45434453413a20696e76616c6964207369676e6174757265202773272076616c604482015261756560f01b6064820152608401610c7d565b60006145b7826040518060400160405280602081526020017f5361666545524332303a206c6f772d6c6576656c2063616c6c206661696c6564815250856001600160a01b031661470e9092919063ffffffff16565b90508051600014806145d85750808060200190518101906145d89190615048565b6114775760405162461bcd60e51b815260206004820152602a60248201527f5361666545524332303a204552433230206f7065726174696f6e20646964206e60448201527f6f742073756363656564000000000000000000000000000000000000000000006064820152608401610c7d565b6000807f7fffffffffffffffffffffffffffffff5d576e7357a4501ddfe92f46681b20a08311156146815750600090506003614705565b6040805160008082526020820180845289905260ff881692820192909252606081018690526080810185905260019060a0016020604051602081039080840390855afa1580156146d5573d6000803e3d6000fd5b5050604051601f1901519150506001600160a01b0381166146fe57600060019250925050614705565b9150600090505b94509492505050565b606061380a848460008585600080866001600160a01b031685876040516147359190615065565b60006040518083038185875af1925050503d8060008114614772576040519150601f19603f3d011682016040523d82523d6000602084013e614777565b606091505b509150915061478887838387614793565b979650505050505050565b606083156148025782516000036147fb576001600160a01b0385163b6147fb5760405162461bcd60e51b815260206004820152601d60248201527f416464726573733a2063616c6c20746f206e6f6e2d636f6e74726163740000006044820152606401610c7d565b508161380a565b61380a83838151156148175781518083602001fd5b8060405162461bcd60e51b8152600401610c7d9190615081565b8015158114612ee457600080fd5b60008060006060848603121561485457600080fd5b8335925060208401359150604084013561486d81614831565b809150509250925092565b60006020828403121561488a57600080fd5b5035919050565b600080604083850312156148a457600080fd5b82359150602083013563ffffffff811681146148bf57600080fd5b809150509250929050565b6001600160a01b0381168114612ee457600080fd5b6000602082840312156148f157600080fd5b81356148fc816148ca565b9392505050565b634e487b7160e01b600052602160045260246000fd5b6000610120820190508a82528960208301528860408301528760608301528660808301528560a08301526001600160a01b0380861660c084015280851660e0840152506003831061497a57634e487b7160e01b600052602160045260246000fd5b826101008301529a9950505050505050505050565b60008060008060008060c087890312156149a857600080fd5b86356149b3816148ca565b955060208701356149c3816148ca565b945060408701356149d3816148ca565b935060608701356149e3816148ca565b925060808701356149f3816148ca565b8092505060a087013590509295509295509295565b634e487b7160e01b600052604160045260246000fd5b604051601f8201601f1916810167ffffffffffffffff81118282101715614a4757614a47614a08565b604052919050565b600067ffffffffffffffff821115614a6957614a69614a08565b5060051b60200190565b600082601f830112614a8457600080fd5b81356020614a99614a9483614a4f565b614a1e565b82815260059290921b84018101918181019086841115614ab857600080fd5b8286015b84811015614ad35780358352918301918301614abc565b509695505050505050565b600082601f830112614aef57600080fd5b813567ffffffffffffffff811115614b0957614b09614a08565b614b1c601f8201601f1916602001614a1e565b818152846020838601011115614b3157600080fd5b816020850160208301376000918101602001919091529392505050565b600080600080600080600060e0888a031215614b6957600080fd5b87359650602080890135614b7c816148ca565b96506040890135955060608901359450608089013567ffffffffffffffff80821115614ba757600080fd5b818b0191508b601f830112614bbb57600080fd5b8135614bc9614a9482614a4f565b81815260059190911b8301840190848101908e831115614be857600080fd5b938501935b82851015614c0f578435614c00816148ca565b82529385019390850190614bed565b9750505060a08b0135925080831115614c2757600080fd5b614c338c848d01614a73565b945060c08b0135925080831115614c4957600080fd5b5050614c578a828b01614ade565b91505092959891949750929550565b600080600060608486031215614c7b57600080fd5b8335614c86816148ca565b925060208401359150604084013567ffffffffffffffff811115614ca957600080fd5b614cb586828701614ade565b9150509250925092565b60008060408385031215614cd257600080fd5b8235915060208301356148bf816148ca565b60008060408385031215614cf757600080fd5b8235614d02816148ca565b915060208301356148bf81614831565b60008060408385031215614d2557600080fd5b82359150602083013567ffffffffffffffff811115614d4357600080fd5b614d4f85828601614ade565b9150509250929050565b634e487b7160e01b600052601160045260246000fd5b808201808211156114f2576114f2614d59565b818103818111156114f2576114f2614d59565b634e487b7160e01b600052603260045260246000fd5b600081614dba57614dba614d59565b506000190190565b600060208284031215614dd457600080fd5b5051919050565b600060208284031215614ded57600080fd5b81516148fc816148ca565b87815260006020888184015287604084015286606084015260808301865182880160005b82811015614e415781516001600160a01b031684529284019290840190600101614e1c565b5050865183880192915060005b81811015614e6a57835183529284019291840191600101614e4e565b5050614e87818760601b6bffffffffffffffffffffffff19169052565b6014019b9a5050505050505050505050565b80820281158282048414176114f2576114f2614d59565b60005b83811015614ecb578181015183820152602001614eb3565b50506000910152565b60008151808452614eec816020860160208601614eb0565b601f01601f19169290920160200192915050565b84815260006001600160a01b03808616602084015280851660408401525060806060830152614f326080830184614ed4565b9695505050505050565b80820260008212600160ff1b84141615614f5857614f58614d59565b81810583148215176114f2576114f2614d59565b8082018281126000831280158216821582161715614f8c57614f8c614d59565b505092915050565b600082614fb157634e487b7160e01b600052601260045260246000fd5b500490565b6000600160ff1b8201614fcb57614fcb614d59565b5060000390565b600060018201614fe457614fe4614d59565b5060010190565b6001600160a01b038716815260c06020820152600061500d60c0830188614ed4565b90508560408301528460608301528360808301528260a0830152979650505050505050565b634e487b7160e01b600052603160045260246000fd5b60006020828403121561505a57600080fd5b81516148fc81614831565b60008251615077818460208701614eb0565b9190910192915050565b6020815260006148fc6020830184614ed456fea164736f6c6343000814000a",
  "devdoc": {
    "events": {
      "Initialized(uint8)": {
        "details": "Triggered when the contract has been initialized or reinitialized."
      },
      "Paused(address)": {
        "details": "Emitted when the pause is triggered by `account`."
      },
      "SequencerRewardRecipientChanged(uint256,address)": {
        "details": "Emitted when reward recipient address update in 'setSequencerRewardRecipient'",
        "params": {
          "recipient": "the address receive reward token",
          "sequencerId": "the sequencerId"
        }
      },
      "SetCurrentBatch(uint256)": {
        "details": "Emitted when current batch update in 'SetCurrentBatch'",
        "params": {
          "_newCurrentBatch": "new batch id."
        }
      },
      "Unpaused(address)": {
        "details": "Emitted when the pause is lifted by `account`."
      },
      "UpdateLockingInfo(address)": {
        "details": "Emitted when nft contract update in 'UpdateLockingInfo'",
        "params": {
          "_newLockingInfo": "new contract address."
        }
      },
      "UpdateMaxAmounts(uint256)": {
        "details": "Emitted when min lock amount update in 'UpdateMaxAmounts'",
        "params": {
          "_newMaxLock": "new max lock."
        }
      },
      "UpdateMinAmounts(uint256)": {
        "details": "Emitted when min lock amount update in 'UpdateMinAmounts'",
        "params": {
          "_newMinLock": "new min lock."
        }
      },
      "UpdateMpc(address)": {
        "details": "Emitted when mpc address update in 'UpdateMpc'",
        "params": {
          "_newMpc": "new min lock."
        }
      },
      "UpdateNFTContract(address)": {
        "details": "Emitted when nft contract update in 'UpdateNFTContract'",
        "params": {
          "_newNftContract": "new contract address."
        }
      },
      "UpdateSignerUpdateLimit(uint256)": {
        "details": "Emitted when signer update limit update in 'UpdateSignerUpdateLimit'",
        "params": {
          "_newLimit": "new limit."
        }
      },
      "WhiteListAdded(address,bool)": {
        "details": "Emitted when white address update in 'setWhiteListAddress'",
        "params": {
          "user": "the address who can lock token",
          "verified": "white address state"
        }
      }
    },
    "kind": "dev",
    "methods": {
      "batchSubmitRewards(uint256,address,uint256,uint256,address[],uint256[],bytes)": {
        "details": "batchSubmitRewards Allow to submit L2 sequencer block information, and attach Metis reward tokens for reward distribution",
        "params": {
          "_sequencers": "Those sequencers can receive rewards",
          "batchId": "The batchId that submitted the reward is that",
          "endEpoch": "The endEpoch that submitted the reward is that",
          "finishedBlocks": "How many blocks each sequencer finished.",
          "payeer": "Who Pays the Reward Tokens",
          "signature": "Confirmed by mpc and signed for reward distribution",
          "startEpoch": "The startEpoch that submitted the reward is that"
        }
      },
      "currentSequencerSetSize()": {
        "details": "currentSequencerSetSize  get all sequencer count"
      },
      "currentSequencerSetTotalLock()": {
        "details": "currentSequencerSetTotalLock get total lock amount for all sequencers"
      },
      "fetchMpcAddress(uint256)": {
        "details": "fetchMpcAddress query mpc address by L1 block height, used by batch-submitter",
        "params": {
          "blockHeight": "the L1 block height"
        }
      },
      "forceUnlock(uint256,uint32)": {
        "details": "forceUnlock Allow owner to force a sequencer node to exit",
        "params": {
          "l2Gas": "bridge reward to L2 gasLimit",
          "sequencerId": "unique integer to identify a sequencer."
        }
      },
      "getSequencerId(address)": {
        "details": "getSequencerId query sequencer id by signer address",
        "params": {
          "user": "sequencer signer address"
        }
      },
      "lockFor(address,uint256,bytes)": {
        "details": "lockFor is used to lock Metis and participate in the sequencer block node application",
        "params": {
          "amount": "Amount of L1 metis token to lock for.",
          "signerPubkey": "sequencer signer pubkey",
          "user": "sequencer signer address"
        }
      },
      "owner()": {
        "details": "Returns the address of the current owner."
      },
      "ownerOf(uint256)": {
        "details": "ownerOf query owner of the NFT",
        "params": {
          "tokenId": "NFT token id"
        }
      },
      "paused()": {
        "details": "Returns true if the contract is paused, and false otherwise."
      },
      "relock(uint256,uint256,bool)": {
        "details": "relock Allow sequencer to increase the amount of locked positions",
        "params": {
          "amount": "Amount of L1 metis token to relock for.",
          "lockRewards": "Whether to lock the current rewards",
          "sequencerId": "unique integer to identify a sequencer."
        }
      },
      "renounceOwnership()": {
        "details": "Leaves the contract without owner. It will not be possible to call `onlyOwner` functions. Can only be called by the current owner. NOTE: Renouncing ownership will leave the contract without an owner, thereby disabling any functionality that is only available to the owner."
      },
      "sequencerLock(uint256)": {
        "details": "sequencerLock return the total lock amount of sequencer",
        "params": {
          "sequencerId": "sequencer id"
        }
      },
      "sequencerReward(uint256)": {
        "details": "sequencerReward query sequencer current reward",
        "params": {
          "sequencerId": "sequencerid"
        }
      },
      "setPause()": {
        "details": "setPause can set the contract not suspended status"
      },
      "setSequencerRewardRecipient(uint256,address)": {
        "details": "setSequencerRewardRecipient Allow sequencer owner to set a reward recipient",
        "params": {
          "recipient": "Who will receive the reward token",
          "sequencerId": "The sequencerId"
        }
      },
      "setUnpause()": {
        "details": "setUnpause can cancel the suspended state"
      },
      "setWhiteListAddress(address,bool)": {
        "details": "setWhiteListAddress Allow owner to update white address list",
        "params": {
          "user": "the address who can lock token",
          "verified": "white address state"
        }
      },
      "transferOwnership(address)": {
        "details": "Transfers ownership of the contract to a new account (`newOwner`). Can only be called by the current owner."
      },
      "unlock(uint256,uint32)": {
        "details": "unlock is used to unlock Metis and exit the sequencer node",
        "params": {
          "l2Gas": "bridge reward to L2 gasLimit",
          "sequencerId": "sequencer id"
        }
      },
      "unlockClaim(uint256,uint32)": {
        "details": "unlockClaim Because unlock has a waiting period, after the waiting period is over, you can claim locked tokens",
        "params": {
          "l2Gas": "bridge reward to L2 gasLimit",
          "sequencerId": "sequencer id"
        }
      },
      "updateLockingInfo(address)": {
        "details": "updateLockingInfo Allow owner update the locking info contract address",
        "params": {
          "_lockingInfo": "new locking info contract address"
        }
      },
      "updateMaxAmounts(uint256)": {
        "details": "updateMaxAmounts Allow owner to update max lock amount",
        "params": {
          "_maxLock": "new max lock amount"
        }
      },
      "updateMinAmounts(uint256)": {
        "details": "updateMinAmounts Allow owner to update min lock amount",
        "params": {
          "_minLock": "new min lock amount"
        }
      },
      "updateMpc(address)": {
        "details": "updateMpc Allow owner to update new mpc address",
        "params": {
          "_newMpc": "new mpc"
        }
      },
      "updateNFTContract(address)": {
        "details": "updateNFTContract Allow owner update the NFT contract address",
        "params": {
          "_nftContract": "new NFT contract address"
        }
      },
      "updatePerSecondReward(uint256)": {
        "details": "updatePerSecondReward  Allow owner to set per block reward",
        "params": {
          "newReward": "the new reward"
        }
      },
      "updateSequencerThreshold(uint256)": {
        "details": "updateSequencerThreshold  Allow owner to set max sequencer threshold",
        "params": {
          "newThreshold": "the new threshold"
        }
      },
      "updateSigner(uint256,bytes)": {
        "details": "updateSigner Allow sqeuencer to update new signers to replace old signer addressesand NFT holder will be transfer driectly",
        "params": {
          "sequencerId": "unique integer to identify a sequencer.",
          "signerPubkey": "the new signer pubkey address"
        }
      },
      "updateSignerUpdateLimit(uint256)": {
        "details": "updateSignerUpdateLimit Allow owner to set signer update max limit",
        "params": {
          "_limit": "new limit"
        }
      },
      "updateWithdrawDelayTimeValue(uint256)": {
        "details": "updateWithdrawDelayTimeValue Allow owner to set withdraw delay time.",
        "params": {
          "newWithdrawDelayTime": "new withdraw delay time"
        }
      },
      "withdrawRewards(uint256,uint32)": {
        "details": "withdrawRewards withdraw current rewards",
        "params": {
          "l2Gas": "bridge reward to L2 gasLimit",
          "sequencerId": "unique integer to identify a sequencer."
        }
      }
    },
    "version": 1
  },
  "userdoc": {
    "kind": "user",
    "methods": {},
    "version": 1
  },
  "storageLayout": {
    "storage": [
      {
        "astId": 139,
        "contract": "contracts/LockingPool.sol:LockingPool",
        "label": "_initialized",
        "offset": 0,
        "slot": "0",
        "type": "t_uint8"
      },
      {
        "astId": 142,
        "contract": "contracts/LockingPool.sol:LockingPool",
        "label": "_initializing",
        "offset": 1,
        "slot": "0",
        "type": "t_bool"
      },
      {
        "astId": 809,
        "contract": "contracts/LockingPool.sol:LockingPool",
        "label": "__gap",
        "offset": 0,
        "slot": "1",
        "type": "t_array(t_uint256)50_storage"
      },
      {
        "astId": 11,
        "contract": "contracts/LockingPool.sol:LockingPool",
        "label": "_owner",
        "offset": 0,
        "slot": "51",
        "type": "t_address"
      },
      {
        "astId": 131,
        "contract": "contracts/LockingPool.sol:LockingPool",
        "label": "__gap",
        "offset": 0,
        "slot": "52",
        "type": "t_array(t_uint256)49_storage"
      },
      {
        "astId": 323,
        "contract": "contracts/LockingPool.sol:LockingPool",
        "label": "_paused",
        "offset": 0,
        "slot": "101",
        "type": "t_bool"
      },
      {
        "astId": 428,
        "contract": "contracts/LockingPool.sol:LockingPool",
        "label": "__gap",
        "offset": 0,
        "slot": "102",
        "type": "t_array(t_uint256)49_storage"
      },
      {
        "astId": 5531,
        "contract": "contracts/LockingPool.sol:LockingPool",
        "label": "bridge",
        "offset": 0,
        "slot": "151",
        "type": "t_address"
      },
      {
        "astId": 5533,
        "contract": "contracts/LockingPool.sol:LockingPool",
        "label": "l1Token",
        "offset": 0,
        "slot": "152",
        "type": "t_address"
      },
      {
        "astId": 5535,
        "contract": "contracts/LockingPool.sol:LockingPool",
        "label": "l2Token",
        "offset": 0,
        "slot": "153",
        "type": "t_address"
      },
      {
        "astId": 5538,
        "contract": "contracts/LockingPool.sol:LockingPool",
        "label": "logger",
        "offset": 0,
        "slot": "154",
        "type": "t_contract(LockingInfo)5339"
      },
      {
        "astId": 5541,
        "contract": "contracts/LockingPool.sol:LockingPool",
        "label": "NFTContract",
        "offset": 0,
        "slot": "155",
        "type": "t_contract(LockingNFT)5453"
      },
      {
        "astId": 5543,
        "contract": "contracts/LockingPool.sol:LockingPool",
        "label": "WITHDRAWAL_DELAY",
        "offset": 0,
        "slot": "156",
        "type": "t_uint256"
      },
      {
        "astId": 5545,
        "contract": "contracts/LockingPool.sol:LockingPool",
        "label": "currentBatch",
        "offset": 0,
        "slot": "157",
        "type": "t_uint256"
      },
      {
        "astId": 5547,
        "contract": "contracts/LockingPool.sol:LockingPool",
        "label": "totalLocked",
        "offset": 0,
        "slot": "158",
        "type": "t_uint256"
      },
      {
        "astId": 5549,
        "contract": "contracts/LockingPool.sol:LockingPool",
        "label": "NFTCounter",
        "offset": 0,
        "slot": "159",
        "type": "t_uint256"
      },
      {
        "astId": 5551,
        "contract": "contracts/LockingPool.sol:LockingPool",
        "label": "totalRewardsLiquidated",
        "offset": 0,
        "slot": "160",
        "type": "t_uint256"
      },
      {
        "astId": 5554,
        "contract": "contracts/LockingPool.sol:LockingPool",
        "label": "signers",
        "offset": 0,
        "slot": "161",
        "type": "t_array(t_address)dyn_storage"
      },
      {
        "astId": 5556,
        "contract": "contracts/LockingPool.sol:LockingPool",
        "label": "currentUnlockedInit",
        "offset": 0,
        "slot": "162",
        "type": "t_uint256"
      },
      {
        "astId": 5558,
        "contract": "contracts/LockingPool.sol:LockingPool",
        "label": "lastRewardEpochId",
        "offset": 0,
        "slot": "163",
        "type": "t_uint256"
      },
      {
        "astId": 5560,
        "contract": "contracts/LockingPool.sol:LockingPool",
        "label": "lastRewardTime",
        "offset": 0,
        "slot": "164",
        "type": "t_uint256"
      },
      {
        "astId": 5562,
        "contract": "contracts/LockingPool.sol:LockingPool",
        "label": "perSecondReward",
        "offset": 0,
        "slot": "165",
        "type": "t_uint256"
      },
      {
        "astId": 5564,
        "contract": "contracts/LockingPool.sol:LockingPool",
        "label": "minLock",
        "offset": 0,
        "slot": "166",
        "type": "t_uint256"
      },
      {
        "astId": 5566,
        "contract": "contracts/LockingPool.sol:LockingPool",
        "label": "maxLock",
        "offset": 0,
        "slot": "167",
        "type": "t_uint256"
      },
      {
        "astId": 5568,
        "contract": "contracts/LockingPool.sol:LockingPool",
        "label": "signerUpdateLimit",
        "offset": 0,
        "slot": "168",
        "type": "t_uint256"
      },
      {
        "astId": 5570,
        "contract": "contracts/LockingPool.sol:LockingPool",
        "label": "mpcAddress",
        "offset": 0,
        "slot": "169",
        "type": "t_address"
      },
      {
        "astId": 5572,
        "contract": "contracts/LockingPool.sol:LockingPool",
        "label": "sequencerThreshold",
        "offset": 0,
        "slot": "170",
        "type": "t_uint256"
      },
      {
        "astId": 5577,
        "contract": "contracts/LockingPool.sol:LockingPool",
        "label": "sequencers",
        "offset": 0,
        "slot": "171",
        "type": "t_mapping(t_uint256,t_struct(Sequencer)5522_storage)"
      },
      {
        "astId": 5581,
        "contract": "contracts/LockingPool.sol:LockingPool",
        "label": "signerToSequencer",
        "offset": 0,
        "slot": "172",
        "type": "t_mapping(t_address,t_uint256)"
      },
      {
        "astId": 5585,
        "contract": "contracts/LockingPool.sol:LockingPool",
        "label": "batchSubmitHistory",
        "offset": 0,
        "slot": "173",
        "type": "t_mapping(t_uint256,t_bool)"
      },
      {
        "astId": 5588,
        "contract": "contracts/LockingPool.sol:LockingPool",
        "label": "sequencerState",
        "offset": 0,
        "slot": "174",
        "type": "t_struct(State)5497_storage"
      },
      {
        "astId": 5593,
        "contract": "contracts/LockingPool.sol:LockingPool",
        "label": "sequencerStateChanges",
        "offset": 0,
        "slot": "176",
        "type": "t_mapping(t_uint256,t_struct(StateChange)5502_storage)"
      },
      {
        "astId": 5597,
        "contract": "contracts/LockingPool.sol:LockingPool",
        "label": "latestSignerUpdateBatch",
        "offset": 0,
        "slot": "177",
        "type": "t_mapping(t_uint256,t_uint256)"
      },
      {
        "astId": 5601,
        "contract": "contracts/LockingPool.sol:LockingPool",
        "label": "whiteListAddresses",
        "offset": 0,
        "slot": "178",
        "type": "t_mapping(t_address,t_bool)"
      },
      {
        "astId": 5605,
        "contract": "contracts/LockingPool.sol:LockingPool",
        "label": "whiteListBoundSequencer",
        "offset": 0,
        "slot": "179",
        "type": "t_mapping(t_address,t_address)"
      },
      {
        "astId": 5609,
        "contract": "contracts/LockingPool.sol:LockingPool",
        "label": "mpcHistory",
        "offset": 0,
        "slot": "180",
        "type": "t_array(t_struct(MpcHistoryItem)5492_storage)dyn_storage"
      },
      {
        "astId": 5611,
        "contract": "contracts/LockingPool.sol:LockingPool",
        "label": "l2ChainId",
        "offset": 0,
        "slot": "181",
        "type": "t_uint256"
      }
    ],
    "types": {
      "t_address": {
        "encoding": "inplace",
        "label": "address",
        "numberOfBytes": "20"
      },
      "t_array(t_address)dyn_storage": {
        "base": "t_address",
        "encoding": "dynamic_array",
        "label": "address[]",
        "numberOfBytes": "32"
      },
      "t_array(t_struct(MpcHistoryItem)5492_storage)dyn_storage": {
        "base": "t_struct(MpcHistoryItem)5492_storage",
        "encoding": "dynamic_array",
        "label": "struct LockingPool.MpcHistoryItem[]",
        "numberOfBytes": "32"
      },
      "t_array(t_uint256)49_storage": {
        "base": "t_uint256",
        "encoding": "inplace",
        "label": "uint256[49]",
        "numberOfBytes": "1568"
      },
      "t_array(t_uint256)50_storage": {
        "base": "t_uint256",
        "encoding": "inplace",
        "label": "uint256[50]",
        "numberOfBytes": "1600"
      },
      "t_bool": {
        "encoding": "inplace",
        "label": "bool",
        "numberOfBytes": "1"
      },
      "t_contract(LockingInfo)5339": {
        "encoding": "inplace",
        "label": "contract LockingInfo",
        "numberOfBytes": "20"
      },
      "t_contract(LockingNFT)5453": {
        "encoding": "inplace",
        "label": "contract LockingNFT",
        "numberOfBytes": "20"
      },
      "t_enum(Status)5487": {
        "encoding": "inplace",
        "label": "enum LockingPool.Status",
        "numberOfBytes": "1"
      },
      "t_int256": {
        "encoding": "inplace",
        "label": "int256",
        "numberOfBytes": "32"
      },
      "t_mapping(t_address,t_address)": {
        "encoding": "mapping",
        "key": "t_address",
        "label": "mapping(address => address)",
        "numberOfBytes": "32",
        "value": "t_address"
      },
      "t_mapping(t_address,t_bool)": {
        "encoding": "mapping",
        "key": "t_address",
        "label": "mapping(address => bool)",
        "numberOfBytes": "32",
        "value": "t_bool"
      },
      "t_mapping(t_address,t_uint256)": {
        "encoding": "mapping",
        "key": "t_address",
        "label": "mapping(address => uint256)",
        "numberOfBytes": "32",
        "value": "t_uint256"
      },
      "t_mapping(t_uint256,t_bool)": {
        "encoding": "mapping",
        "key": "t_uint256",
        "label": "mapping(uint256 => bool)",
        "numberOfBytes": "32",
        "value": "t_bool"
      },
      "t_mapping(t_uint256,t_struct(Sequencer)5522_storage)": {
        "encoding": "mapping",
        "key": "t_uint256",
        "label": "mapping(uint256 => struct LockingPool.Sequencer)",
        "numberOfBytes": "32",
        "value": "t_struct(Sequencer)5522_storage"
      },
      "t_mapping(t_uint256,t_struct(StateChange)5502_storage)": {
        "encoding": "mapping",
        "key": "t_uint256",
        "label": "mapping(uint256 => struct LockingPool.StateChange)",
        "numberOfBytes": "32",
        "value": "t_struct(StateChange)5502_storage"
      },
      "t_mapping(t_uint256,t_uint256)": {
        "encoding": "mapping",
        "key": "t_uint256",
        "label": "mapping(uint256 => uint256)",
        "numberOfBytes": "32",
        "value": "t_uint256"
      },
      "t_struct(MpcHistoryItem)5492_storage": {
        "encoding": "inplace",
        "label": "struct LockingPool.MpcHistoryItem",
        "members": [
          {
            "astId": 5489,
            "contract": "contracts/LockingPool.sol:LockingPool",
            "label": "startBlock",
            "offset": 0,
            "slot": "0",
            "type": "t_uint256"
          },
          {
            "astId": 5491,
            "contract": "contracts/LockingPool.sol:LockingPool",
            "label": "newMpcAddress",
            "offset": 0,
            "slot": "1",
            "type": "t_address"
          }
        ],
        "numberOfBytes": "64"
      },
      "t_struct(Sequencer)5522_storage": {
        "encoding": "inplace",
        "label": "struct LockingPool.Sequencer",
        "members": [
          {
            "astId": 5504,
            "contract": "contracts/LockingPool.sol:LockingPool",
            "label": "amount",
            "offset": 0,
            "slot": "0",
            "type": "t_uint256"
          },
          {
            "astId": 5506,
            "contract": "contracts/LockingPool.sol:LockingPool",
            "label": "reward",
            "offset": 0,
            "slot": "1",
            "type": "t_uint256"
          },
          {
            "astId": 5508,
            "contract": "contracts/LockingPool.sol:LockingPool",
            "label": "activationBatch",
            "offset": 0,
            "slot": "2",
            "type": "t_uint256"
          },
          {
            "astId": 5510,
            "contract": "contracts/LockingPool.sol:LockingPool",
            "label": "deactivationBatch",
            "offset": 0,
            "slot": "3",
            "type": "t_uint256"
          },
          {
            "astId": 5512,
            "contract": "contracts/LockingPool.sol:LockingPool",
            "label": "deactivationTime",
            "offset": 0,
            "slot": "4",
            "type": "t_uint256"
          },
          {
            "astId": 5514,
            "contract": "contracts/LockingPool.sol:LockingPool",
            "label": "unlockClaimTime",
            "offset": 0,
            "slot": "5",
            "type": "t_uint256"
          },
          {
            "astId": 5516,
            "contract": "contracts/LockingPool.sol:LockingPool",
            "label": "signer",
            "offset": 0,
            "slot": "6",
            "type": "t_address"
          },
          {
            "astId": 5518,
            "contract": "contracts/LockingPool.sol:LockingPool",
            "label": "rewardRecipient",
            "offset": 0,
            "slot": "7",
            "type": "t_address"
          },
          {
            "astId": 5521,
            "contract": "contracts/LockingPool.sol:LockingPool",
            "label": "status",
            "offset": 20,
            "slot": "7",
            "type": "t_enum(Status)5487"
          }
        ],
        "numberOfBytes": "256"
      },
      "t_struct(State)5497_storage": {
        "encoding": "inplace",
        "label": "struct LockingPool.State",
        "members": [
          {
            "astId": 5494,
            "contract": "contracts/LockingPool.sol:LockingPool",
            "label": "amount",
            "offset": 0,
            "slot": "0",
            "type": "t_uint256"
          },
          {
            "astId": 5496,
            "contract": "contracts/LockingPool.sol:LockingPool",
            "label": "lockerCount",
            "offset": 0,
            "slot": "1",
            "type": "t_uint256"
          }
        ],
        "numberOfBytes": "64"
      },
      "t_struct(StateChange)5502_storage": {
        "encoding": "inplace",
        "label": "struct LockingPool.StateChange",
        "members": [
          {
            "astId": 5499,
            "contract": "contracts/LockingPool.sol:LockingPool",
            "label": "amount",
            "offset": 0,
            "slot": "0",
            "type": "t_int256"
          },
          {
            "astId": 5501,
            "contract": "contracts/LockingPool.sol:LockingPool",
            "label": "lockerCount",
            "offset": 0,
            "slot": "1",
            "type": "t_int256"
          }
        ],
        "numberOfBytes": "64"
      },
      "t_uint256": {
        "encoding": "inplace",
        "label": "uint256",
        "numberOfBytes": "32"
      },
      "t_uint8": {
        "encoding": "inplace",
        "label": "uint8",
        "numberOfBytes": "1"
      }
    }
  }
}